:020000040800F2
:1000000070060020010100089D0600089F060008F8
:10001000A3060008A7060008AB06000800000000C1
:10002000000000000000000000000000AF06000813
:10003000B106000800000000B3060008B50600087D
:100040001B0100081B0100081B0100081B01000820
:100050001B0100081B0100081B0100081B01000810
:100060001B0100081B0100081B0100081B01000800
:100070001B0100081B0100081B0100081B010008F0
:100080001B0100081B0100081B0100081B010008E0
:100090001B0100081B0100081B0100088127000844
:1000A0001B0100081B0100081B0100081B010008C0
:1000B00025050008352600081B0100081B01000863
:1000C0001B0100081B0100081B0100081B010008A0
:1000D0001B010008612500081B0100081B01000826
:1000E0001B0100081B0100081B010008DFF80CD0F1
:1000F00003F0D4FC004800479F030008700600206E
:100100000648804706480047FEE7FEE7FEE7FEE7B1
:10011000FEE7FEE7FEE7FEE7FEE7FEE797070008DB
:10012000ED00000870B5024601231BE00025002009
:1001300011E032F81040461C32F81660A64208DA88
:10014000461C32F8166022F81060461C22F8164051
:100150000125461CF0B2CE1A8642EADC05B903E05E
:100160005E1CF3B28B42E1DD00BF70BD10B5002410
:1001700006E002F0ACFEF74921F81400601CC4B29E
:100180000F2CF6DB0F21F348FFF7CCFFF148C089B5
:1001900010BD10B5002406E002F093FFED4921F8F0
:1001A0001400601CC4B20F2CF6DB0F21E948FFF7E6
:1001B000B9FFE848C08910BD2DE9F047E64800883E
:1001C00003F07DFA824603F098FA06460022E34BDC
:1001D00003F0FDF904460022E14B03F086F9804666
:1001E00003F0CEFADF49086008460168DE4800687F
:1001F00003F05EF8DD49086008460168DC480068E5
:1002000003F05CF80546DB480168D848006803F055
:100210004FF80646D8480168304603F04FF80446C8
:10022000294602F0F3FFD549086008460168D44822
:10023000006803F03DF8D24908600846006803F002
:100240005CFA04460022CF4B03F082FA03D2CE4878
:10025000CB4908600CE0CA48006803F04EFA044637
:10026000CA4ACB4B03F05CFA02D2CA48C4490860C0
:10027000C348006803F041FA80460022B84B03F0FF
:10028000A6F906460022C44B03F02FF9044603F0FA
:100290001BFAC2490880B5480068B6490860B148F1
:1002A0000068BF490860BDE8F0872DE9F047BD4808
:1002B000008803F004FA824603F01FFA0646002283
:1002C000A64B03F084F904460022A54B03F00DF978
:1002D000804603F055FAB449086008460168B348FF
:1002E000006802F0E5FFB249086008460168B148BD
:1002F000006802F0E3FF0546AF480168AC480068BB
:1003000002F0D6FF0646AD480168304602F0D6FF3F
:100310000446294602F07AFFA949086008460168A8
:10032000A848006802F0C4FFA649086008460068B3
:1003300003F0E3F904460022924B03F009FA03D2DA
:100340009148A04908600DE09E48006803F0D5F987
:10035000044600229C4B03F0E3F903D24FF07E5099
:10036000984908609748006803F0C7F98046002262
:100370007B4B03F02CF906460022874B03F0B5F8BF
:10038000044603F0A1F991490880894800688A4928
:100390000860854800688E490860BDE8F08700BFA6
:1003A000002402F007F802F075F802F035FE02F0C2
:1003B0001DF902F099F902F0DBFA02F003FD02F0F8
:1003C00041FE02F012FE02F00AFF4FF4E13002F0AB
:1003D00075F800207F4988707F4988707F49887050
:1003E00040217F4800F0D3FB1D2140F2572002F04E
:1003F000FBF996E06B4800885749098890FBF1F5B6
:10040000284603F053F9774908607748008800F4DC
:10041000004078B100BF754804F001FA054603F0CA
:10042000AFF9514908600A2002F001F800206E4936
:10043000088076E0601C84B241F2883094FBF0F1D1
:1004400000FB114000285CD14748006803F055F9D3
:1004500005462A460B4666A003F054FD4148006855
:1004600003F04BF905462A460B4664A003F04AFD0B
:100470004348006803F041F905462A460B4662A04E
:1004800003F040FD3448018862A003F03BFD3B4887
:10049000006803F032F905462A460B4660A003F0D7
:1004A00031FD3548006803F028F905462A460B4619
:1004B0005EA003F027FD2E48006803F01EF90546F4
:1004C0002A460B465CA003F01DFD57A003F01AFD61
:1004D0002148008803F0F3F85A4908603148008841
:1004E00003F0EDF85849086056480168564800681E
:1004F00002F016FF3B4908602A48018853A003F028
:1005000001FD1E2094FBF0F100FB114048B9FFF7FC
:100510002DFE11490880FFF73CFE22490880FFF7B5
:100520004BFE67E710B50121880701F02EFF012877
:100530000ED14A48007810B1012808D190E017493F
:10054000098847F6FF72114488B202F047FD90E037
:100550009FE0000030020020A8010020E0FFEF40F3
:1005600000001440800100207C0100206401002074
:100570004801002060010020440100209801002073
:100580007801002000000C4000006040CDCCCCCCB5
:10059000CCCCF43F6666A63FC0FFDF40AC01002034
:1005A00084010020AA010020900100208C0100207D
:1005B00070010020540100206C0100205001002037
:1005C000A0010020880100200000F03FAE010020C3
:1005D00094010020F2010020F5010020F801002024
:1005E00000100140B0010020EC0100205802002062
:1005F00053563A252E35660D0A0000004D563A2511
:100600002E39660D0A00000050563A252E39660D27
:100610000A00000041445F4156473A25640D0A0034
:1006200064656C74613A25640D0A00004B703A25CC
:100630002E33660D0A0000004B693A252E33660DF5
:100640000A000000B4010020B801002041445F41CD
:100650005647323A25640D0A0000000000020020CF
:100660000C49098847F6FF72511A88B202F0B6FCAD
:1006700000BF00BF08480078401C074908700846C2
:100680000078022801DB002008700121880701F0B2
:100690008DFE10BDAC01002000020020704700BF9D
:1006A000FEE700BFFEE700BFFEE700BFFEE77047C2
:1006B00070477047704700000CB500200190009013
:1006C0006C48006840F480306A49086000BF69489F
:1006D000006800F4003000900198401C01900098E0
:1006E00018B90198B0F5A06FF1D16248006800F424
:1006F000003010B10120009001E00020009000982F
:10070000012843D15C48006840F010005A49086055
:100710000846006820F0030008600846006840F0C2
:1007200002000860534840685249486008464068E3
:1007300048600846406840F4806048600846406869
:1007400020F47C1048600846406840F4E810486097
:100750000846006840F08070086000BF45480068A7
:1007600000F000700028F9D04248406820F00300F3
:10077000404948600846406840F00200486000BFB9
:100780003C48406800F00C000828F9D10CBD10B5B9
:10079000FFF792FF10BD10B53648006840F0010029
:1007A0003449086008464068344908403149486087
:1007B00008460068324908402E490860084600682B
:1007C00020F4802008600846406820F4FE0048605D
:1007D0004FF41F008860FFF7DAFF4FF000602949EF
:1007E000086010BD10B5002100200022214B5B687D
:1007F00003F00C0121B1042906D0082928D107E013
:10080000214B224C236027E01F4B204C236023E028
:10081000184B5B6803F47010164B5B6803F480326E
:10082000022303EB904022B9194B4343174C23603A
:100830000DE0104B5B6803F4003323B1144B4343CA
:10084000124C236003E0104B4343104C236003E041
:100850000D4B0E4C236000BF00BF064B5B68C3F31B
:1008600003130C4CE15C094B1B68CB40074C236025
:1008700010BD000000100240002002400000FFF800
:10088000FFFFF6FE08ED00E000127A00BC01002038
:1008900000093D00C001002031490143314A116087
:1008A000704770B5002100230F22C47804B32D4C8B
:1008B000246804F4E064C4F5E064210AC1F104038F
:1008C000CA40447804FA03F18478144021430901B2
:1008D000254C0678A155047804F01F050124AC408E
:1008E00005786D11AD0005F1E025C5F8004109E07E
:1008F000047804F01F050124AC401C4D06787611E5
:1009000045F8264070BD1A4A0A400243154B1B1F8A
:100910001A60704739B1134A121D12680243114B15
:100920001B1D1A6006E00F4A121D126882430D4B10
:100930001B1D1A607047042808D14FF0E021096997
:1009400041F004014FF0E022116107E04FF0E02197
:10095000096921F004014FF0E022116170470000A5
:100960000000FA050CED00E000E400E080E100E0AA
:1009700080FFFF1F10B50446CC48844208D10121F6
:10098000042000F02DFB0021042000F029FB46E0AC
:10099000C748844208D10121082000F021FB002132
:1009A000082000F01DFB3AE0C248844208D1012132
:1009B000102000F015FB0021102000F011FB2EE0AC
:1009C000BD48844208D10121202000F009FB00210C
:1009D000202000F005FB22E0B848844208D1012124
:1009E000402000F0FDFA0021402000F0F9FA16E066
:1009F000B348844208D10121802000F0F1FA00219F
:100A0000802000F0EDFA0AE0AE48844207D10121CF
:100A1000801500F0E5FA0021A01500F0E1FA10BD04
:100A200010B50121084600F0DBFA0021012000F09A
:100A3000D7FA10BD2DE9F04102460025002600201E
:100A400000230024002791F803C00CF00F0591F853
:100A500003C00CF0100CBCF1000F03D091F802C0E1
:100A60004CEA050591F800C0BCF1000F31D01468C4
:100A700000202BE04FF0010C0CFA00F3B1F800C09D
:100A80000CEA03069E4220D183004FF00F0C0CFAB3
:100A900003F7BC4305FA03FC4CEA040491F803C0D5
:100AA000BCF1280F06D14FF0010C0CFA00FCC2F883
:100AB00014C00AE091F803C0BCF1480F05D14FF013
:100AC000010C0CFA00FCC2F810C0401C0828D1D35D
:100AD0001460B1F800C0BCF1FF0F34DD5468002091
:100AE0002EE000F1080C4FF0010808FA0CF3B1F801
:100AF00000C00CEA03069E4221D183004FF00F0C88
:100B00000CFA03F7BC4305FA03FC4CEA040491F821
:100B100003C0BCF1280F05D100F1080C08FA0CF84D
:100B2000C2F8148091F803C0BCF1480F07D100F15E
:100B3000080C4FF0010808FA0CF8C2F81080401CAD
:100B40000828CED35460BDE8F0814FF6FF710180D4
:100B5000022181700421C170704702460020936811
:100B60000B400BB1012000E000207047014688686F
:100B700080B2704702460020D3680B400BB10120C1
:100B800000E0002070470146C86880B270470161EC
:100B90007047416170470AB1016100E041617047EF
:100BA000C16070474FF480320A4382618161826183
:100BB00082698269704702460020434B18684FF6ED
:100BC0008073184040EA021008433F4B186070479A
:100BD0003E49C8617047F0B50A4600230024002151
:100BE000002500F00046B6F1004F02D1364EF16903
:100BF00001E0354E7168C0F3034583B200F440163E
:100C0000B6F5401F08D121F070612F4E766826F0AE
:100C100070662D4F7E6012E000F48016B6F5801FDE
:100C200006D1032606FA05F4A14341F0706106E0FF
:100C3000460D360103FA06F6B14341F0706122B168
:100C4000460D360103FA06F6314300F00046B6F1D0
:100C5000004F02D11C4EF16101E01B4E7160F0BDEE
:100C600030B500228B071C0F0F2303FA04F2164B3A
:100C700008338C1053F824309343134C08348D10F0
:100C800044F8253023468C1053F824308C07240F69
:100C900000FA04F423430C4C08348D1044F825303A
:100CA00030BD0A49DC31086070470000000801408F
:100CB000000C0140001001400014014000180140E8
:100CC000001C0140002001400000014000002042C3
:100CD000DF48006840F00100DD49086008464068D0
:100CE000DC490840DA49486008460068DA490840AB
:100CF000D74908600846006820F48020086008464C
:100D0000406820F4FE0048604FF41F008860704780
:100D1000CF49096821F48031CD4A11601146096834
:100D200021F480211160B0F5803F03D0B0F5802F11
:100D30000ED106E0C649096841F48031C44A116009
:100D400007E0C349096841F4A021C14A116000E0ED
:100D500000BF00BF704710B50146002200230020ED
:100D60004A11012A02D1BA4C236806E0022A02D1B4
:100D7000B74C236A01E0B64C636A01F01F020124FC
:100D800094401C400CB1012000E0002010BD38B59B
:100D9000002000900024002500BF3120FFF7DBFF7A
:100DA00005460098401C00900098B0F5A06F01D057
:100DB000002DF2D03120FFF7CEFF08B1012400E072
:100DC0000024204638BD01460020A14A106820F0CA
:100DD000F80040EAC10010607047A0490860704701
:100DE000024600209A4B586820F47C1042EA010326
:100DF0001843974B586070479849086670470146FA
:100E00000020934A506820F0030008435060704768
:100E10008F48406800F00C007047014600208C4A63
:100E2000506820F0F00008435060704701460020F1
:100E3000874A506820F4E0600843506070470146DC
:100E40000020834A506820F4605040EAC10050609E
:100E5000704729B17E4A527A02437D4B5A7204E0B0
:100E60007B4A527A82437A4B5A7270477B49D83117
:100E70000860704701460020754A506820F44040E1
:100E80000843506070470021714A20321170704A47
:100E900082F82010012802D004280AD104E00121A0
:100EA0006B4A2032117005E00521694A2032117029
:100EB00000E000BF00BF704769490860704764499F
:100EC000096A0143624A1162704765494439086002
:100ED000704730B500210022002400235C4D6D686E
:100EE00005F00C0121B1042905D0082923D105E022
:100EF0005C4D056022E05B4D05601FE0544D6D6860
:100F000005F47012524D6D6805F48034022505EB2E
:100F100092421CB9544D554305600BE04C4D6D6831
:100F200005F400351DB1504D5543056002E04D4DAF
:100F30005543056002E04B4D056000BF00BF444DC6
:100F40006D6805F0F0010909484D6B5C0568DD40EE
:100F500045603F4D6D6805F4E061090A434D6B5CE7
:100F60004568DD4085603A4D6D6805F46051C90AF9
:100F70003E4D6B5C4568DD40C560354D6D6805F4E0
:100F80004041890B3A4D6B5CC568B5FBF3F50561D3
:100F900030BD29B12E4A526902432D4B5A6104E0FB
:100FA0002B4A526982432A4B5A61704729B1284A19
:100FB00092690243264B9A6104E0254A9269824372
:100FC000234B9A61704729B1214AD2690243204BD1
:100FD000DA6104E01E4AD26982431D4BDA61704730
:100FE00029B11B4AD2680243194BDA6004E0184A5F
:100FF000D2688243164BDA60704729B1144A1269ED
:101000000243134B1A6104E0114A12698243104BE8
:101010001A61704712494039086070470F49C86427
:1010200070470B49C87170470948406A40F08070AA
:1010300007494862704701460020054A92680A4005
:101040000AB1012000E00020704701498872704712
:10105000001002400000FFF8FFFFF6FE00004242D1
:101060008004424200127A0000093D00D0010020B5
:10107000E001002010B50446FB48844209D101215B
:101080008803FFF7ADFF00214FF48040FFF7A8FF72
:1010900032E0F648844209D101214804FFF7ADFF50
:1010A00000214FF40030FFF7A8FF25E0F04884420C
:1010B00009D101218804FFF7A0FF00214FF480200F
:1010C000FFF79BFF18E0EB48844209D10121C804D7
:1010D000FFF793FF00214FF40020FFF78EFF0BE096
:1010E000E548844208D101210805FFF786FF002169
:1010F0004FF48010FFF781FF10BD2DE9F04786B057
:1011000005460E460024A24600BFA1460027B0892E
:1011100000B100BF2F462C8A4CF6FF700440F088C7
:1011200004432C82AC894EF6F3100440B088318918
:101130000843718908430443AC81AC8A4FF6FF40F1
:101140000440B0890443AC8201A8FFF7C2FEC64840
:10115000874202D1DDF810A001E0DDF80CA0A889DB
:1011600000F4004040B10AEBCA0000EB0A103168FD
:101170004900B0FBF1F807E00AEBCA0000EB0A10E7
:1011800031688900B0FBF1F86420B8FBF0F004018D
:101190002009642101FB1089A88900F4004040B1B6
:1011A000322000EBC900B0FBF1F000F0070004436F
:1011B00008E0322000EB09106421B0FBF1F000F0F0
:1011C0000F0004432C8106B0BDE8F0874FF41651A0
:1011D000016000218180C18001810C2141810021B9
:1011E0008181704710B502460020108A4FF2FF033C
:1011F00018400B884C8823438C882343CC88234396
:101200001843108210BD0021018041808180C1807F
:10121000704721B1828942F40052828104E08289C0
:101220004DF6FF731A4082817047F0B503460024E3
:1012300000260025002040F66A17B94200D100BF01
:101240001846C1F3421401F01F06012707FA06F5FC
:10125000012C01D10C3004E0022C01D1103000E04F
:1012600014301AB107682F43076002E00768AF43E4
:101270000760F0BD1AB1838A0B43838202E0838A40
:101280008B4383827047028A4FF6F0731A400282C2
:10129000028A0A430282704782894FF2FF731A4022
:1012A000828182890A438281704721B1828942F01A
:1012B0000202828104E082894FF6FD731A40828126
:1012C0007047028A4FF6DF731A400282028A0A438D
:1012D0000282704721B1028A42F48042028204E015
:1012E000028A4BF6FF731A4002827047C1F308026C
:1012F0008280704701468888C0F308007047818962
:1013000041F0010181817047028BD2B20283028BCE
:1013100042EA012202837047028B02F47F42028379
:10132000028B0A430283704721B1828A42F0200275
:10133000828204E0828A4FF6DF731A40828270470D
:1013400021B1828A42F01002828204E0828A4FF642
:10135000EF731A408282704721B1828A42F00802FC
:10136000828204E0828A4FF6F7731A4082827047C5
:1013700021B1828942F40042828103E08289C2F372
:101380000E028281704721B1828A42F40062828219
:1013900004E0828A4FF2FF731A4082827047828A89
:1013A0004FF6FB731A408282828A0A438282704718
:1013B00021B1828A42F00202828204E0828A4FF6E0
:1013C000FD731A408282704702460020B1F5007F0B
:1013D00000D100BF13880B400BB1012000E00020BA
:1013E000704701F40072B2F5007F00D100BFCA431C
:1013F0000280704770B502460024002300250020BB
:1014000040F66A16B14200D100BFC1F3421501F0A7
:101410001F03012606FA03F3012D02D196893340FA
:1014200006E0022D02D1168A334001E0968A33404D
:101430000C12012606FA04F41688344013B10CB1DC
:10144000012000E0002070BD10B50022002340F60E
:101450006A14A14200D100BF0A1201249440A3B231
:10146000DC43048010BD000000380140004400400F
:1014700000480040004C004000500040002044491B
:101480000860091D0860091D0860091D08604148C1
:101490003F4914310860704700213D498279002A94
:1014A0003AD00A46126803689A430B461A600A1D2E
:1014B000126803689A430B1D1A60027911440A6886
:1014C00003681A430A60324A0832126803689A4372
:1014D0002F4B08331A601A1D126803689A432C4B6D
:1014E0000C331A604279102A0ED11A1F1268036851
:1014F0001A43274B08331A601A1D126803681A43EF
:10150000234B0C331A600DE02149427911440A68DB
:1015100003681A430A6005E0027911440A68036807
:101520009A430A6070470021016001710C214171EA
:101530000021817170471649103109680143144A2E
:1015400010321160704701460020114A14321268AF
:101550000A400AB1012000E0002070470C49143114
:1015600008607047014600200022094B1B6803EA0F
:101570000102074B14331B680B4013B10AB1012061
:1015800000E00020704702491431086070470000F5
:1015900000040140FFFF0F0010B50446FE488442DE
:1015A00008D10121C014FFF71BFD0021E014FFF753
:1015B00017FDC4E0B4F1804F08D101210846FFF7C0
:1015C0001CFD00210120FFF718FDB8E0F34884421C
:1015D00008D101210220FFF710FD00210220FFF7B2
:1015E0000CFDACE0EE48844208D101210420FFF755
:1015F00004FD00210420FFF700FDA0E0E94884423B
:1016000008D101210820FFF7F8FC00210820FFF78E
:10161000F4FC94E0E448844208D101211020FFF753
:10162000ECFC00211020FFF7E8FC88E0DF48844252
:1016300008D101212020FFF7E0FC00212020FFF746
:10164000DCFC7CE0DA48844208D101214014FFF739
:10165000C7FC00216014FFF7C3FC70E0D54884424A
:1016600009D10121C804FFF7BBFC00214FF4002081
:10167000FFF7B6FC63E0D048844209D10121080598
:10168000FFF7AEFC00214FF48010FFF7A9FC56E0F5
:10169000CA48844209D101214805FFF7A1FC002175
:1016A0004FF40010FFF79CFC49E0C548844208D184
:1016B00001214020FFF7A1FC00214020FFF79DFC05
:1016C0003DE0C048844208D101218020FFF795FC0D
:1016D00000218020FFF791FC31E0BB48844208D113
:1016E00001218015FFF789FC0021A015FFF785FC7B
:1016F00025E0B648844209D101210804FFF770FCB7
:1017000000214FF48030FFF76BFC18E0B0488442B2
:1017100009D101214804FFF763FC00214FF4003098
:10172000FFF75EFC0BE0AB48844208D1012188043E
:10173000FFF756FC00214FF48020FFF751FC10BD4D
:1017400000220288944B98420ED0994B98420BD0BD
:10175000B0F1804F08D0914B984205D0904B984201
:1017600002D0904B984204D14FF68F731A404B88A9
:101770001A438D4B984207D08C4B984204D04FF6B9
:10178000FF431A40CB881A4302808B8883850B88DD
:101790000385814B98420BD0854B984208D08B4BE8
:1017A000984205D08A4B984202D08A4B984201D188
:1017B0000B7A038601238382704770B500240022D0
:1017C0000023058C4FF6FE7635400584028C838815
:1017D000048B4FF68F752C40B51E2C400D882C4382
:1017E000751E2A400D892A434D882A436A4DA84216
:1017F0000BD06F4DA84208D0744DA84205D0744D4F
:10180000A84202D0734DA84213D14FF6F7752A4073
:101810004D892A434FF6FB752A408D882A434FF69F
:10182000FF652B404FF6FF552B408D892B43CD890B
:101830002B4383800483CD888586028470BD70B578
:10184000002400220023058C4FF6EF7635400584F6
:10185000028C8388048B48F6FF752C404FF6FF45B9
:101860002C400D884FF6FF7606EA05252C434FF6EF
:10187000DF752A400D8906EA05152A434D8806EAD8
:1018800005152A43444DA84202D0494DA8421DD116
:101890004FF67F752A404D894FF6FF7606EA05150B
:1018A0002A434FF6BF752A408D8806EA05152A435C
:1018B0004FF6FF352B404FF2FF752B408D8906EA1E
:1018C00085052B43CD8906EA85052B438380048358
:1018D000CD880587028470BD70B5002400220023E6
:1018E000058C4FF6FF6635400584028C8388848B17
:1018F0004FF68F752C404FF6FC752C400D882C430D
:101900004FF6FF552A400D894FF6FF7606EA05256A
:101910002A434D8806EA05252A431F4DA84202D0D6
:10192000234DA8421DD14FF2FF752A404D894FF635
:10193000FF7606EA05252A434FF6FF352A408D88B3
:1019400006EA05252A434EF6FF752B404DF6FF7536
:101950002B408D8906EA05152B43CD8906EA05152E
:101960002B4383808483CD888587028470BD70B5C6
:10197000002200230024058C4EF6FF7635400584B6
:10198000038C8488828B48F6FF752A404FF6FF450A
:101990002A400D8820E00000002C01400004004097
:1019A00000080040000C00400010004000140040FF
:1019B00000340140004C01400050014000540140FF
:1019C00000180040001C0040002000400040014082
:1019D00000440140004801404FF6FF7606EA052525
:1019E0002A434DF6FF752B400D8906EA05352B433A
:1019F0004D8806EA05352B43FA4DA84202D0FA4D30
:101A0000A84208D14BF6FF752C408D894FF6FF7622
:101A100006EA85152C4384808283CD88A0F8405047
:101A2000038470BD828B4FF2FF331A408283828B16
:101A30004FF6FF7303EA01231A4382837047F0B520
:101A40000C461546002200210026078C4EF6FF7C2E
:101A500007EA0C070784828B018C4FF6FF7707EAB1
:101A6000043640F6FF473A404FF6FF7707EA05276E
:101A70003A434FF6FF7707EA03373A43D94FB84264
:101A80000ED0D94FB8420BD0B0F1804F08D0D74F0D
:101A9000B84205D0D64FB84202D0D64FB84206D190
:101AA0004DF6FF77394046F48057394305E047F655
:101AB000FF57394044F48057394382830184F0BD95
:101AC000828B4FF6F3731A408283828B0A438283A0
:101AD0007047F0B50C461546002200210026078C01
:101AE0004FF6FF6C07EA0C070784828B018C4FF6D8
:101AF000FF7707EA04264FF60C773A404FF6FF7758
:101B000007EA03172F433A43B64FB8420ED0B64FF9
:101B1000B8420BD0B0F1804F08D0B44FB84205D0D6
:101B2000B34FB84202D0B34FB84206D14FF6FF5779
:101B3000394046F48077394305E04FF2FF5739408A
:101B400044F48077394382830184F0BD028B4FF2E5
:101B5000FF331A400283028B4FF6FF7303EA01231F
:101B60001A4302837047F0B50C4615460022002147
:101B70000026078C4FF6EF7C07EA0C070784028BE0
:101B8000018C4FF6FF7707EA041640F6FF473A400C
:101B90004FF6FF7707EA03373A434FF6FF7707EA36
:101BA00005273A438F4FB8420ED08F4FB8420BD023
:101BB000B0F1804F08D08D4FB84205D08C4FB8425D
:101BC00002D08C4FB84206D14FF6DF77394046F04D
:101BD0001007394305E04FF65F77394044F01007AE
:101BE000394302830184F0BD028B4FF6F3731A4030
:101BF0000283028B0A4302837047F0B50C461546F8
:101C000000220021068C4FF6FE773E400684028BB0
:101C1000018C4FF60C7632407E1C06EA03162E43EA
:101C20003243704EB0420ED06F4EB0420BD0B0F186
:101C3000804F08D06D4EB04205D06D4EB04202D0FC
:101C40006C4EB04206D14FF6FD76314044F00106AD
:101C5000314305E04FF6F576314044F0010631435B
:101C600002830184F0BD70B505460C465D4885428F
:101C70000ED05D4885420BD0B5F1804F08D05B484F
:101C8000854205D05A48854202D05A48854200D143
:101C900000E000BF208850B92389A28861882846C7
:101CA000FFF7ABFFE1882846FFF79EFF25E020887D
:101CB00004280AD12389A28861882846FFF753FFA8
:101CC000E1882846FFF742FF17E0208808280AD15C
:101CD0002389A28861882846FFF7FBFEE188284611
:101CE000FFF7EEFE09E02389A28861882846FFF706
:101CF000A6FEE1882846FFF795FE70BD2DE9F0416C
:101D000005460C4600260127608808B9022600E037
:101D10000026A088012801D1022700E001272088A1
:101D2000A0B92389A28861882846FFF766FFE18869
:101D30002846FFF759FF23893A4631462846FFF7E0
:101D400012FFE1882846FFF701FF13E02389A288EC
:101D500061882846FFF707FFE1882846FFF7F6FE6F
:101D600023893A4631462846FFF747FFE18828464F
:101D7000FFF73AFFBDE8F0810A884B881A438B8849
:101D80001A43CB881A430B891A434B891A438B8910
:101D90001A43A0F8442070474FF6FF71818000215C
:101DA0000180C18041800172704700210180418023
:101DB0008180C180018141818181C1817047002181
:101DC00001804180012181800021C1800181704713
:101DD0000021018041808180C18001814181818118
:101DE00070470000002C0140003401400004004016
:101DF00000080040000C004021B1028842F00102BE
:101E0000028004E002884FF6FE731A400280704799
:101E100031B1B0F8442042F40042A0F8442005E07B
:101E2000B0F84420C2F30E02A0F8442070471AB163
:101E300083890B43838102E083898B4383817047CD
:101E40008182704741EA0203A0F8483070471AB116
:101E500083890B43838102E083898B4383817047AD
:101E600001894FF6F8721140018170470A4600213E
:101E700001894FF68F73194011430181704730B5C6
:101E800004460D4629462046FFF7F0FF208940F022
:101E90000700208130BD2DE9F04104460D4616466D
:101EA0001F46602D06D13B46012231462046FFF7F2
:101EB0005AFE05E03B46012231462046FFF79DFED3
:101EC00029462046FFF7D2FF208940F007002081F5
:101ED000BDE8F08130B50C4600210189C9B24FF64A
:101EE000FF7505EA0325154325432943018130BDCC
:101EF0002DE9F04105460E46174698460024434614
:101F00003A4631462846FFF7E5FF2C894FF6F87030
:101F1000044044F007044FF68F70044044F070040E
:101F20002C81BDE8F081F0B504460D4616461F46EB
:101F30003B46324629462046FFF7CCFF208940F435
:101F400080402081F0BD0185828270470A460021D1
:101F500001884FF68F731940114301807047F0B527
:101F60000C4615461E460021002200230189028BE3
:101F7000038C4FF6F877394021434FF6FC473A403F
:101F800040F201173A434FF6DD773B404FF6FF77BB
:101F900007EA06172F433B43018102830384F0BD08
:101FA0000A460021018B4FF68F73194011430183BC
:101FB00070470A460021018B48F6FF7319404FF61F
:101FC000FF7303EA02231943018370470A46002185
:101FD000818B4FF68F7319401143818370470A46F6
:101FE0000021818B48F6FF7319404FF6FF7303EA17
:101FF000022319438183704721B1028842F0800295
:10200000028004E002884FF67F731A400280704716
:1020100021B1828842F00402828004E082884FF677
:10202000FB731A408280704721B1828842F0080217
:10203000828004E082884FF6F7731A4082807047EE
:1020400021B1828842F00102828004E082884FF64A
:10205000FE731A40828070470A460021018B4FF6BA
:10206000F77319401143018370470A460021018B21
:102070004FF2FF7319404FF6FF7303EA022319432F
:10208000018370470A460021818B4FF6F773194090
:102090001143818370470A460021818B4FF2FF7301
:1020A00019404FF6FF7303EA0223194381837047F7
:1020B0000A460021018B4FF6FB731940114301833F
:1020C00070470A460021018B4FF6FF3319404FF647
:1020D000FF7303EA02231943018370470A46002174
:1020E000818B4FF6FB7319401143818370470A4679
:1020F0000021818B4FF6FF3319404FF6FF7303EA3F
:1021000002231943818370470A460021018B4FF651
:102110007F7319401143018370470A460021018BE8
:10212000C1F30E014FF6FF7303EA02231943018343
:1021300070470A460021818B4FF67F731940114387
:10214000818370470A460021818BC1F30E014FF64F
:10215000FF7303EA02231943818370470A46002173
:10216000018C4FF6FD7319401143018470470A46F4
:102170000021018C4FF6F773194011430184704719
:102180000A460021018C4FF6DF7319404FF6FF73AA
:1021900003EA02131943018470470A460021018CA7
:1021A0004FF67F7319404FF6FF7303EA021319438A
:1021B000018470470A460021018C4FF6FF531940F5
:1021C0004FF6FF7303EA02231943018470470A465E
:1021D0000021018C4FF2FF7319404FF6FF7303EAA1
:1021E00002231943018470470A460021018C4DF6F1
:1021F000FF7319404FF6FF7303EA0233194301845A
:10220000704730B5002301248C40A3B2048C9C435A
:102210000484048C02FA01F5ADB22C43048430BD71
:1022200030B5002304248C40A3B2048C9C43048466
:10223000048C02FA01F5ADB22C43048430BD70B5B4
:102240000346002000241846183001258D40ACB20A
:102250001D8CA5431D8409B1082909D100EB61003B
:10226000056825F0700505600568154305600EE0FA
:102270000D1FC5F34E052844056825F4E0450560AB
:1022800005684FF6FF7606EA02263543056070BD05
:1022900021B1028842F00202028004E002884FF677
:1022A000FD731A400280704721B1028842F0040297
:1022B000028004E002884FF6FB731A4002807047E8
:1022C00021B1828842F08002828004E082884FF649
:1022D0007F731A408280704702884FF6F7731A4066
:1022E000028002880A430280704782884FF68F730B
:1022F0001A40828082880A438280704702894FF6A2
:10230000F8731A40028102890A43028170470289E8
:102310004FF67F731A40028102890A430281704797
:102320008184704781857047818670470187704737
:1023300081877047A0F84010704702884FF6FF432E
:102340001A40028002880A43028070470146888E44
:1023500070470146088F70470146888F70470146D5
:10236000B1F8400070470146888C70470146088DDF
:10237000704702460020138A0B400BB1012000E099
:1023800000207047CA430282704730B502460020E1
:1023900000230024158A05EA0103958905EA010452
:1023A00013B10CB1012000E0002030BDCA4302820D
:1023B0007047000010B56FF00400FEF7BCFA31481A
:1023C00000683149B0FBF1F03049087008460078E8
:1023D00000EB4001C1EBC0104FF6FF7101EAC000F5
:1023E0002B49088010BD0146284A12784A434FF015
:1023F000E0235A6100229A611A46126942F00102F2
:102400001A6100BF4FF0E022106900F001021AB11A
:1024100000F48032002AF5D04FF0E022126922F059
:1024200001024FF0E0231A6100229A6170470146D1
:10243000174A12884A434FF0E0235A6100229A61FA
:102440001A46126942F001021A6100BF4FF0E02201
:10245000106900F001021AB100F48032002AF5D0B0
:102460004FF0E022126922F001024FF0E0231A61DE
:1024700000229A61704700E000BF011EA0F1010038
:10248000FAD17047BC01002000127A00E40100205C
:10249000E601002010B54FF4A060FEF7FDF910BD75
:1024A00000BF704700BF4D4A128802F04002002A68
:1024B000F9D0C2B2494B1B1D1A80704710B586B0C7
:1024C0000446012144F20800FEF770FD0121084690
:1024D000FEF76CFD01210420FEF77DFB4020ADF8E6
:1024E000140003208DF8160018208DF8170005A998
:1024F0003B48FEF79FFA8020ADF8140004208DF8C9
:10250000170005A93648FEF795FA25208DF800003A
:1025100003208DF801008DF8020001208DF80300E2
:102520006846FEF7BEF901940020ADF80800ADF84A
:102530000A00ADF80C00ADF810000C20ADF80E004C
:1025400001A92648FEF7D9FD012240F22551234872
:10255000FEF76BFE01212148FEF75BFE06B010BDC1
:1025600010B540F225511D48FEF744FF10B31B483B
:10257000FEF7C0FEC4B21B48008800F40040C8B992
:102580001848008800F4804060B10A2C03D0002075
:102590001449088020E01348008840F400401149A5
:1025A000088019E00D2C06D10E48008840F48040C8
:1025B0000C49088010E00B480088C0F30D000A4960
:1025C0000C5408480088401C0649088008460088CA
:1025D000132801DD0020088010BD000000380140F4
:1025E000000C0140EC0100205802002008B5012138
:1025F0003020FEF7DBFC4FF4C050ADF800000320A4
:102600008DF8020048208DF8030069462E48FEF739
:1026100011FA0420ADF8000069462C48FEF70AFACA
:10262000632140F60F6000F020F908BD10B500F0FE
:1026300047F910BD10B501212548FFF7A6FE012876
:1026400040D124480078234948702348016801207C
:102650008843204908700846007830B10846407821
:1026600018B908468078401C88701C4800781B49BF
:1026700048701948001D01680120884317490870F7
:102680000846007830B10846407818B90846807886
:10269000401C887012480078114948701148016840
:1026A000012088430E4908700846007830B108467A
:1026B000407818B908468078401C88700121044889
:1026C000FFF774FE10BD000000100140001401402F
:1026D00000040040F20100202C012242F5010020FC
:1026E000F8010020088122421FB501211520FEF7C4
:1026F0005DFC03208DF80E0004208DF80F00800192
:10270000ADF80C0003A93448FEF794F94FF40070BB
:10271000ADF80C0003A93148FEF78CF90821002020
:10272000FEF79EFA4FF48070019000208DF80800AB
:102730000C208DF8090001208DF80A0001A8FEF791
:10274000ABFE17208DF8000002208DF8010000205C
:102750008DF8020001208DF803006846FEF7A1F80D
:102760001FBD08B517208DF8000000208DF803006C
:102770006846FEF796F84FF48070FEF704FF08BD38
:1027800010B54FF48070FEF7EDFE012823D11448F8
:10279000006870B113480068401C124908604FF48B
:1027A00080710E48FEF7F5F980210C48FEF7EFF92D
:1027B0000DE00C480068401E0A4908608021074867
:1027C000FEF7E7F94FF480710448FEF7E0F94FF4A3
:1027D0008070FEF7D8FE10BD0008014000100140D7
:1027E00024012242FC0100207FB505460C46012150
:1027F0000846FEF7E8FBADF804500020ADF80600EF
:10280000ADF80840ADF80A0001A94FF08040FEF78E
:1028100097FF012211469007FFF709FB1C208DF856
:10282000000000208DF8010001208DF802008DF8D5
:1028300003006846FEF735F801218807FFF7DCFA48
:102840007FBD08B500214FF08040FFF7D5FA1C206E
:102850008DF8000000208DF803006846FEF721F88F
:1028600001218807FFF7A2FD08BD7FB505460C468C
:1028700001210220FEF7A7FBADF804500020ADF8BF
:102880000600ADF80840ADF80A0001A93648FEF789
:1028900057FF012211463448FFF7C9FA1D208DF871
:1028A000000001208DF801008DF802008DF8030072
:1028B0006846FDF7F6FF01212B48FFF79DFA7FBD23
:1028C00008B500212848FFF797FA1D208DF8000071
:1028D00000208DF803006846FDF7E3FF0121224840
:1028E000FFF764FD08BD7FB505460C4601210420B5
:1028F000FEF769FBADF804500020ADF80600ADF816
:102900000840ADF80A0001A91848FEF719FF012296
:1029100011461648FFF78BFA1E208DF800000020A4
:102920008DF8010001208DF802008DF80300684643
:10293000FDF7B7FF01210D48FFF75EFA7FBD08B52F
:1029400000214FF08040FFF757FA1C208DF800005F
:1029500000208DF803006846FDF7A3FF01218807DA
:10296000FFF724FD08BD00000004004000080040FF
:1029700010B500F0D3F810BD70B50446002600F085
:10298000F7F82546E11704EB11610912A02202EBCA
:102990004101C8B200F0A1F900F02DF9E11704EBF4
:1029A00011610912A4EB0121C8B200F096F900F000
:1029B00022F900F0DDF8A12000F08FF900F01BF9FA
:1029C000002000F0BEF9064600F0F4F8304670BD75
:1029D00070B504460E4600F0CBF82546E11704EB2F
:1029E00011610912A02202EB4101C8B200F075F991
:1029F00000F001F9E11704EB11610912A4EB0121C8
:102A0000C8B200F06AF900F0F6F8304600F065F957
:102A100000F0F1F800F0CEF80A20FFF708FD70BDD5
:102A20002DE9F04105460E461746002409E0E20074
:102A300026FA02F2D1B22A1990B2FFF7C9FF601C40
:102A4000C4B2BC42F3DBBDE8F0812DE9F04107469A
:102A50000C460026002509E036023919491B491E9B
:102A600088B2FFF789FF0644681CC5B2A542F3DBB4
:102A70003046BDE8F08110B5FF20FFF77DFF04462A
:102A8000552C01D1002010BD5521FF20FFF7A0FFDC
:102A9000FF20FFF771FF0446552C01D10020F2E71B
:102AA0000120F0E770B506460C46154608E03046B2
:102AB000721C96B2FFF760FF04F8010B681E85B226
:102AC000002DF4D170BD70B505460C46164606E0E3
:102AD00021782846FFF77CFF681C85B2641C301EF5
:102AE000A6F101018EB2F3D170BD2DE9F04104468B
:102AF0004FF6FF7000EA042606F5807087B235466F
:102B000007E028466A1C95B20021FFF761FF681CA8
:102B100085B2BD42F5DBBDE8F081000008B50121BA
:102B20001520FEF743FA01219F48FEF754F84FF4B1
:102B30008060ADF8000010208DF8030003208DF8B0
:102B4000020069469948FDF775FF4FF48061974888
:102B5000FEF71DF84FF40040ADF8000069469448B8
:102B6000FDF768FF4FF400419148FEF710F808BDEB
:102B700010B58F48001D006820F070408C49091D79
:102B800008600846006840F040500860012089490C
:102B900008608949C1F8A8010420FFF724FC00203F
:102BA000844908600420FFF71EFC00208249C1F818
:102BB000A80110BD10B57E48001D006820F07040CF
:102BC0007B49091D08600846006840F040500860D5
:102BD00000207A4908607A49C1F8BC010420FFF757
:102BE00002FC0120754908607549C1F8BC01042048
:102BF000FFF7F9FB10BD10B500246D48001D0068FB
:102C000020F070406A49091D08600846006840F0DD
:102C100000400860012067490860FFF7E4FB0120DD
:102C20006549C1F8A801FFF7DEFB07E0601CC4B2EC
:102C3000FA2C03DDFFF7BEFF012010BD5D48803890
:102C400000680028F2D15D49086000BFF5E710B5C3
:102C500000205A4908605648001D006820F0704066
:102C60005349091D08600846006840F0405008605C
:102C700000205349C1F8BC010220FFF7B4FB01203A
:102C80004E4908600220FFF7AEFB00204A49C1F818
:102C9000A80110BD10B50020484908604448001D37
:102CA000006820F070404249091D0860084600682D
:102CB00040F04050086001204149C1F8BC010220A9
:102CC000FFF791FB01203D4908600220FFF78BFBD5
:102CD00000203949C1F8A80110BD70B50446344838
:102CE000001D006820F070403149091D0860084649
:102CF000006840F04050086000203049086000251E
:102D00001CE0E00918B101202A49086002E0002017
:102D1000284908606006040E0220FFF764FB0120CA
:102D2000264908600220FFF75EFB00202249C1F817
:102D3000A8010220FFF757FB681CC5B2082DE0DB95
:102D400070BD70B5054600241948001D006820F0CC
:102D500070401749091D08600846006840F00040AF
:102D60000860002616E00020144908600220FFF7E2
:102D70003AFB01201049C1F8A8016006040E0D4875
:102D80008038006808B1601CC4B20120FFF72BFB3B
:102D9000701CC6B2082EE6DB15B9FFF77BFF01E019
:102DA000FFF755FF204670BD0002300000100140C3
:102DB00000080140BC01214200002242A801224239
:102DC0000000214208B501211820FEF7EFF840F27B
:102DD0000340ADF8000003208DF8020010208DF8AC
:102DE000030069468648FDF725FE4FF40060ADF804
:102DF000000069468248FDF71DFE04208DF803009F
:102E00002020ADF8000069467E48FDF713FE102033
:102E1000ADF8000069467B48FDF70CFE02217848BA
:102E2000FDF7B5FE01217648FDF7B3FE4FF4806152
:102E30007348FDF7AEFE4FF400617148FDF7A9FE3F
:102E40004FF44040ADF8000003208DF80200102040
:102E50008DF8030069466A48FDF7ECFD4020ADF8A7
:102E6000000003208DF8020010208DF80300694651
:102E70006448FDF7DFFD8020ADF800006946614839
:102E8000FDF7D8FD04208DF80300C002ADF8000066
:102E900069465B48FDF7CEFD4FF48050ADF8000069
:102EA00069465748FDF7C6FD4FF400415448FDF709
:102EB0006EFE4FF480415248FDF76BFE40215148B1
:102EC000FDF767FE80214F48FDF763FE08BD70B532
:102ED000002500204C49086001204C49C1F8BC0184
:102EE00049490860FFF77FFA00204949C1F89C0171
:102EF0004848006808B145F400450E2411E0002060
:102F000044498C3108604148D0F8300118B10120A3
:102F1000A04080B2054301203E498C310860601E0C
:102F200044B2002CEBDA284670BD70B505460E465B
:102F3000002038498C3108603549C1F898010520D6
:102F4000FFF799FA07241BE00120A040284020B198
:102F5000012030498831086003E000202D49883184
:102F6000086001202B498C310860FFF784FA0020AB
:102F70002649C1F8BC010120FFF77DFA601E44B26A
:102F8000002CE1DA0F241BE00120A040304020B1EA
:102F9000012020498831086003E000201D49883164
:102FA000086001201B498C310860FFF764FA00209B
:102FB0001649C1F8BC010120FFF75DFA601E44B25A
:102FC000002CE1DA01201049091F08600520FFF7F5
:102FD00052FA00200E49C1F8980170BD10B50446A0
:102FE00021460120FFF7A1FF10BD10B50121562099
:102FF000FFF79BFF41F202015520FFF796FF10BD3E
:10300000000C0140001001409C012242008021423E
:10301000000022423081214208B501211020FDF735
:10302000C5FF4FF4E070ADF8000003208DF80200FA
:1030300010208DF8030069460148FDF7FBFC08BD30
:103040000010014008B501211820FDF7AFFF40F244
:103050000340ADF8000003208DF8020010208DF829
:10306000030069466348FDF7E5FC4FF40060ADF8E6
:10307000000069465F48FDF7DDFC04208DF8030081
:103080002020ADF8000069465B48FDF7D3FC102016
:10309000ADF8000069465848FDF7CCFC02215548C0
:1030A000FDF775FD01215348FDF773FD4FF4806175
:1030B0005048FDF76EFD4FF400614E48FDF769FD85
:1030C00008BD70B5002500204C49086001204C491E
:1030D000C1F8840149490860FFF785F90020484993
:1030E000C1F8AC014748006808B145F400450E241A
:1030F00011E000204149283908604348D0F8100108
:1031000018B10120A04080B2054301203B49283975
:103110000860601E44B2002CEBDA284670BD70B522
:1031200005460E4600203549283908603449C1F863
:10313000A8010520FFF79FF907241BE00120A0400C
:10314000284020B101202D492C39086003E00020DF
:103150002A492C3908600120284928390860FFF7DE
:103160008AF900202649C1F884010120FFF783F97C
:10317000601E44B2002CE1DA0F241BE00120A040C5
:10318000304020B101201D492C39086003E00020A7
:103190001A492C3908600120184928390860FFF7BE
:1031A0006AF900201649C1F884010120FFF763F98C
:1031B000601E44B2002CE1DA01201049091F0860AA
:1031C0000520FFF758F900200D49C1F8A80170BD8E
:1031D00010B5044621460120FFF7A1FF10BD10B530
:1031E00001215620FFF79BFF41F202015520FFF716
:1031F00096FF10BD000C014000100140AC8121423F
:10320000008021421001224200002242F0B480EAF4
:103210000102D40F4200B2EB410F02D2024608462F
:1032200011464A0042D0C30DDDB2C1F3C752AD1AF8
:10323000202D35DAC1F3160141F4000204B15242E7
:10324000C5F1200602FA06F12A411044B3EBD05F23
:1032500023D0C4B1012DA0EBC35009DCF0BC4FF06A
:10326000004202EAC352DBB200F5000000F073BB7B
:10327000400000F1807000EBC350A0F1807040EA84
:10328000D170490009E0490841EAC071A0EBC35080
:1032900000F50000400800EBC350F0BC00F052BB4A
:1032A0006142012202EB4101001BF6E7F0BC7047CE
:1032B00081F00041AAE780F00040A7E780EA010220
:1032C00010B502F00043400022D04A001FD0010E8A
:1032D00001EB1261C0F35600C2F3560240F4000045
:1032E00042F40002A0FB022000047F39140400D045
:1032F000401C50EA124001D44000491EC2B20C06E4
:1033000004EBD010401C4008802A02D003E00020CB
:1033100010BD20F00100002900DA0020184310BD84
:1033200030B480EA010202F0004530F0004221F0A2
:10333000004013D090B1C30DD40DC2F31601C0F3F9
:103340001600E41A41F4000140F400027D34914279
:1033500001D3641C00E04900002C02DA30BC0020DC
:1033600070474FF400000023914201D3891A0343B0
:1033700040084FEA4101F7D151B1914202D14FF0DB
:10338000004105E002D24FF0010101E06FF00101C0
:1033900003EBC450284430BC00F0D4BA2DE9FE4FF2
:1033A000804681EA0300C00F0C46009021F00041E6
:1033B00023F00045B8EB0200A94105D24046214662
:1033C00090461C460B46024623F00040104347D06F
:1033D000270DC7F30A00C3F30A510290401A019067
:1033E00040286BDAC3F3130040F4801B0098924628
:1033F00020B10023D2EB030A63EB0B0B0198594673
:10340000C0F14002504600F01EFA06460D465046F6
:103410005946019A00F036FA10EB08006141002489
:1034200087EA115284EAE7731A4340D0009A62B3E4
:10343000019A012A4FEA075215DC001B61EB0201D9
:103440004FF0004202EA0752CDE90042001C41F56C
:10345000801132462B4600F0BBFA03B0BDE8F08F76
:1034600040462146F9E7001B61EB0201001C41F5D3
:10347000801300185B412018A2F5001747EB0301E9
:1034800040EAD570B6196D4111E06D084FEA360675
:1034900045EAC0754FEA0752001B61EB0201001CB0
:1034A00041F5801149084FEA300000195141324678
:1034B0002B4603B0BDE8F04F00F07BBA0098012224
:1034C00040000023D0EB020263EBE073009821463A
:1034D0004FEAE074B8EB000061EB0401E9E783F028
:1034E00000435BE781F0004158E72DE9FE4F81EA98
:1034F000030404F0004421F0004100944FF0000B5D
:1035000023F0004350EA01045ED052EA03045BD08A
:10351000C3F30A54C1F30A552C44A4F2F3340194C2
:10352000A0FB0254C1F3130141F48011C3F3130350
:1035300043F4801301FB024400FB034E840A970A04
:1035400044EA815447EA8357A4FB076802958D0A31
:1035500005FB07854FEA932C04FB0C542705029DBD
:103560004FEA065847EA1637B5EB08056EEB070C2D
:10357000870E920E47EA811742EA8312A7FB0201E7
:10358000B6EB0B0164EB00042B0D43EA0C335E1821
:1035900044EB1C50DA465146E7FB0201C5F3130425
:1035A0004FEA0B3343EA14534FEA0432019C43EAD7
:1035B0000603A4F10C040294009CCDE900B400F0D1
:1035C00007FA03B0BDE8F08F00200146F9E72DE9C6
:1035D000F04D81EA030404F0004B21F0004514464D
:1035E0004FF0000A23F0004150EA050220D054EACF
:1035F00001021DD0C5F30A570246C5F31303C1F3F8
:103600001300C1F30A5640F4801543F48013A7EB6E
:103610000608101BD64608F2FD3873EB050002D3EE
:1036200008F1010801E092185B41B8F1000F03DADC
:1036300000200146BDE8F08D00204FF480110646C1
:1036400084460EE0171B73EB050705D3121B63EBD3
:10365000050306434CEA010C49084FEA3000921872
:103660005B4150EA0107EDD152EA030012D082EA31
:10367000040083EA0501084305D0101BAB4106D2C4
:103680000122002306E000224FF0004302E06FF029
:10369000010253101AEB06004CEB085110EB0A0024
:1036A00041EB0B01BDE8F04D00F083B9C10F80EA9A
:1036B000E0700844CA079623002100F04CB9962315
:1036C0000022114600F047B9C1F30A5210B5C1F308
:1036D000130140F2FF3341F480119A4201DA0020D5
:1036E00010BD40F233439A42A2F2334203DC52420D
:1036F00000F0B8F810BD904010BD00F0004230F06E
:1037000000400AD0C10D01F56071C0F3160042EA15
:103710000151C2084007114370470020014670471D
:1037200030B5041E71F1000404DB4FF00044404248
:1037300064EB0101141E73F1000405DB1C464FF01D
:103740000043524263EB04038B4208BF824230BD08
:1037500030B5041E71F1000404DB4FF00044404218
:1037600064EB0101141E73F1000405DB1C464FF0ED
:103770000043524263EB0403994208BF904230BDBC
:1037800001F0004330B421F0004150EA010206D0BC
:103790000A0DA2F56072C1F31301002A02DC30BCED
:1037A00000207047440F44EAC104C100E01830BC57
:1037B00000EBC25000F0C6B830B50B460146002001
:1037C0002022012409E021FA02F59D4205D303FAE3
:1037D00002F5491B04FA02F52844151EA2F1010264
:1037E000F1DC30BD2DE9F05F0546002092469B4696
:1037F00088460646814640241BE028464146474607
:10380000224600F02FF853465A46C01A914110D371
:1038100011461846224600F016F82D1A67EB0108EB
:103820004F4622460120002100F00DF817EB000959
:103830004E41201EA4F10104DFDC484631462A46F1
:103840004346BDE8F09F202A04DB203A00FA02F14B
:10385000002070479140C2F1200320FA03F319437E
:1038600090407047202A04DB203A21FA02F0002120
:10387000704721FA02F3D040C2F120029140084380
:1038800019467047202A06DBCB17203A41FA02F08E
:1038900043EAE07306E041FA02F3D040C2F12002AD
:1038A00091400843194670470FB4002300B589B012
:1038B0000CA900910B996FF00042CB601E4B069350
:1038C0001E4B07930423CDE901321D4A089202469C
:1038D0006B46002000F08EF909B05DF814FB70B55E
:1038E00086B006464FF0FF300091CDE9010100207F
:1038F00015460C4604903246694604A8FFF7D4FFEB
:1039000002460498211825B108B1084600E0204677
:103910002860049800280DD0002A02DD0098884213
:1039200008D0081B0094CDE901043246694604A87A
:10393000FFF7BAFF06B070BD2D3E00084B3E0008F1
:10394000C13A00080029A8BF7047401C490008BFC1
:1039500020F00100704710B4B0FA80FC00FA0CF0BF
:1039600050EA010404BF10BC704749B1CCF12004F7
:1039700021FA04F411FA0CF118BF01212143084384
:10398000A3EB0C01CB1D4FEA00614FEA102042BFB0
:10399000002010BC704700EBC35010440029A4BFA6
:1039A00010BC7047401C490008BF20F0010010BC4B
:1039B000704710B5141E73F1000408DA401C41F181
:1039C000000192185B411A4301D120F0010010BDA3
:1039D0002DE9F04D92469B4611B1B1FA81F202E019
:1039E000B0FA80F220329046FFF72DFF04460F46D2
:1039F00040EA0A0041EA0B0153465A46084313D0F5
:103A0000114653EA010019D0C8F140025046FFF7B1
:103A100029FF05460E46504659464246FFF713FF1A
:103A2000084305D0012004E020463946BDE8F08D6A
:103A30000020054346EAE0762C4337430A986305A5
:103A4000E40AA0EB08000022FD0A44EA47540A30C9
:103A500002D500200146E9E7010510196941DDE9B9
:103A6000084500196941BDE8F04DA2E7C1F30A52CB
:103A7000C1F3130140F2FF3341F480119A4202DA9C
:103A800000200146704740F233439A42A2F233428B
:103A900002DC5242FFF7E6BEFFF7D5BE064C074DEB
:103AA00006E0E06840F0010394E80700984710340E
:103AB000AC42F6D3FCF71EFB88480008A848000873
:103AC000C0B24FF4F05100F0D1B900002DE9FF4F22
:103AD000087883B09946FF2805D0491C2D2804D0CA
:103AE0000024002008E000200BE00124F9E700EBAF
:103AF000800003EB4000491C0B78FF2BF7D104B189
:103B0000404200230293147819461D462D2C01D003
:103B10002B2C04D1521C2D2C13D000240294AA4625
:103B20001478FF2C0FD00A25A3FB057801FB058133
:103B30004FF0000C03FB0C11521CE3194AEB01017E
:103B4000EEE70124EAE7814453EA010002D019F5C7
:103B5000C87F06DA03980021C0E9001107B0BDE86C
:103B6000F08F0025AE4E2F46DFF8B882184600F0E1
:103B700091F9CDE90001B9F1000002DAC9F10004C0
:103B800000E004460023A74A1AEB030B42EB045A59
:103B900012E0E00707D02A46334638464146FFF791
:103BA000A4FC074688462A46334610461946FFF7C6
:103BB0009CFC05460E466410002CEAD1DDE90001AC
:103BC000B9F1000F5A46534606DAFFF700FD3A46B0
:103BD0004346FFF7FCFC05E0FFF787FC3A46434607
:103BE000FFF783FC029A0AB181F00041039AC2E90F
:103BF0000001B3E72DE9FF4F1F468DB0D7E901461D
:103C00004FF0FF382E2045464FF000090B90B96960
:103C10006D1C0E988847396A824688470028F6D17D
:103C2000BAF1FF3F0AD024F4D064002E11DDBAF1BE
:103C30002B0F08D0BAF12D0F0BD102E0404611B086
:103C40008DE744F48064B9696D1C0E9888478246FC
:103C5000761E6946600501D52D2000E02B208DF8E9
:103C6000000001F1010B0DF1200809E0B9696D1C9C
:103C70000E98884782460F9844F40074761E0560BB
:103C8000002E02DDBAF1300FF0D00B998A453ED1FB
:103C900044F0800406E00F99681CA9F1010944F47E
:103CA00000740860B9696D1C761E0E9888478246BC
:103CB0003028F0D02BE00B998A4505D1200603D49B
:103CC00044F08004761E18E0504600F009FA08B36C
:103CD0000DF11301761E44F400748B4508D2AAF14D
:103CE00030000BF8010B200607D5A9F1010003E015
:103CF000200602D409F101008146A00502D50F99E2
:103D0000681C0860B9696D1C0E9888478246002EB1
:103D1000D1DC53E0002E51DDBAF1650F02D0BAF1CB
:103D2000450F4BD1A00549D5B9696D1C24F44074E9
:103D3000761E0E9888478246002E0CDD2B2804D074
:103D4000BAF12D0F07D144F48074B9696D1C0E9837
:103D500088478246761EE00501D52D2100E02B2103
:103D600008F8011BCDF82C8021E00DF12901761E09
:103D700044F4007488450CD2AAF1300010F0FF0022
:103D800088F8000002D10B99884509D908F101088B
:103D900006E0E00501D5244801E042F20F708146BB
:103DA000B9696D1C0E98884782460F980560002EF1
:103DB00004DD504600F094F90028D6D1F9690E9838
:103DC0008847FF208BF8000088F80000002006904C
:103DD00007904B466A4608A906A8FFF777FEA0059C
:103DE00002D46FF001002AE714F0240F0AD0E00794
:103DF00014D1DDE906123868031D3B600068C0E994
:103E000000120BE0DDE90601FFF7BAFC0146E0070E
:103E100004D13868021D3A600068016028460EE748
:103E2000000014400000F03FF1D8FFFF426842B1AB
:103E3000016811F8013B23B1521EC0E90012184677
:103E400070470121C160881E704742685AB1C3683B
:103E5000016843B983688B4205D0491E521CC0E9F2
:103E60000012002070474FF0FF3070477F2801D9C3
:103E7000002208E0064A02EB5002C007127800D187
:103E8000120902F00F020120904008407047000024
:103E9000484800080EB540F2334202920022CDE9B4
:103EA00000221346FFF794FD03B000BD70B58C18D7
:103EB00010F8015B15F0070301D110F8013B2A113E
:103EC00006D110F8012B03E010F8016B01F8016B2B
:103ED0005B1EF9D12B0705D40023521E0DD401F827
:103EE000013BFAE710F8013BCB1A921C03E013F8F0
:103EF000015B01F8015B521EF9D5A142D8D3002025
:103F000070BD00000FB4054B10B503A9044A029818
:103F100000F0EEF810BC5DF814FB0000A5240008CA
:103F2000E8010020014800687047000004020020FA
:103F300002E008C8121F08C1002AFAD17047704772
:103F4000002001E001C1121F002AFBD170470000D0
:103F50000149086070470000040200202DE9FF5F5E
:103F600082B00021DDE90430020DDDF840B00343EA
:103F700018D044F61050A2F2FF32424315141198A3
:103F800001281FD0A5EB0B00401C5FEA000A4FF090
:103F900000064E4FDFF83891B046504615D5CAF1AD
:103FA000000413E0119801244AA3012801D16FEA0B
:103FB0000B010298119AC0E90031C0E9024206B033
:103FC000BDE8F09FCBF10000DFE704460021404A46
:103FD000491842EB0450CDE9001012E0E00707D089
:103FE00032463B4640464946FFF77FFA80468946BF
:103FF00032463B4610461946FFF777FA06460F460B
:104000006410002CEAD1DDE90401DDE90023BAF1F6
:10401000000F06DAFFF769FA42464B46FFF765FAEA
:1040200005E0FFF7D4FA42464B46FFF7D0FA0446C4
:104030000E460022284BFFF78BFB03D84FF0FF30D2
:10404000014607E00022254B20463146FFF7A6F93E
:10405000FFF70CFD102409E0002C0ADB0A220023E4
:10406000FFF7C0FB039B30321A55641E50EA010271
:10407000F2D1641C039AC4F111031444119A012A69
:1040800003D0012208430DD10AE0084304D00020E8
:104090004FF0110B119072E7A3EB0B056D1E0DE0B5
:1040A0005B4504DD4FF0000205F1010504E003DA91
:1040B0004FF00002A5F10105002AECD002981199F9
:1040C000C0E90231C0E9004579E700000000144072
:1040D0000000F03F300000000000F0430000E03F2F
:1040E00030380A2801D201207047002070470000B4
:1040F0002DE9FF4F95B09B468946064600250FE205
:10410000252877D100242746F84A0121059400E0AC
:10411000044316F8013F203B01FA03F01042F7D1A7
:1041200030782A2811D06FF02F033078A0F13002B8
:10413000092A16D8059A44F0020402EB820203EB26
:1041400042021044761C0590EFE759F8042B0592C3
:10415000002A03DA504244F40054059044F002046B
:10416000761C30782E2816D116F8010F44F004047E
:104170002A280DD06FF02F023078A0F13003092BE0
:1041800009D807EB870302EB4303C718761CF3E754
:1041900059F8047B761C30786C280FD006DC4C284C
:1041A00017D068280DD06A2814D104E0742810D0E4
:1041B0007A280FD10DE044F400140AE044F480148E
:1041C00001E044F440147278824202D104F5801474
:1041D000761C761C307866280BD013DC582877D0F4
:1041E00009DC002875D04528F6D04628F4D04728A9
:1041F0001AD19DE118E0632835D0642879D065286C
:1042000012D195E1702873D008DC6728F1D06928B5
:104210006FD06E280DD06F2806D1B5E073282CD052
:10422000752875D0782874D05A46179990476D1C18
:1042300075E1C4F30250022809D003280DD0D9F843
:10424000001004280DD00D6009F1040967E1D9F8C8
:104250000010EA17C1E90052F6E7D9F800100D8006
:10426000F2E70D70F0E719F8041B8DF8001000203C
:104270008DF80100EA46012003E059F804AB4FF045
:10428000FF3061074FF0000102D40DE008F1010199
:104290008846B9420FDA8045F8DB1AF80810002981
:1042A000F4D108E008F1010188468142FADB1AF8EE
:1042B00008100029F6D105985B46A0EB08072146B7
:1042C0003846179A00F094FA284400EB080507E0F6
:1042D0004DE029E10DE01AF8010B5A461799904775
:1042E000B8F10108F7D25B4621463846179A13E128
:1042F00042E00A220092C4F302524FF0000A022A5E
:1043000008D059F804CB032A4FEAEC710AD00DE02B
:1043100029E02AE009F1070121F00702F2E802C1D1
:10432000914609E00FFA8CFC4FEAEC71042A03D1A4
:104330004FFA8CFC4FEAEC71002907DA0A4600219B
:10434000DCF1000C61EB02012D2202E0220504D514
:104350002B228DF80420012203E0E20701D0202265
:10436000F7E7904659E00A2102E010220DE0102103
:104370004FF0000A00910BE010224FF0000A44F0C9
:1043800004040827009203E008224FF0000A00927C
:10439000C4F30252022A05D059F804CB0021032AA3
:1043A00008D009E009F1070121F00702F2E802C193
:1043B000914605E01FFA8CFC042A01D10CF0FF0C99
:1043C0004FF00008220728D5702806D0009B83F004
:1043D000100353EA0A0305D00EE040228DF80420B2
:1043E000012208E05CEA010206D030228DF80420A8
:1043F0008DF8050002229046009B83F0080353EAE3
:104400000A030AD15CEA010201D1620705D5302214
:104410008DF804204FF001087F1E582804D034A0E6
:1044200003900EA802900DE036A0F9E753466046CF
:10443000009AFFF7D7F984460398825C0298401EE1
:10444000029002705CEA0100F0D1029806A9081AF5
:1044500000F1200A600702D524F4803400E001272F
:10446000574502DDA7EB0A0000E0002000EB0A013F
:10447000009005984144401A0590E00306D45B463D
:104480002146179A059800F0B3F90544002706E085
:1044900001A85A46C05D179990476D1C7F1C47457F
:1044A000F6DBE0030CD55B462146179A059800F031
:1044B0009FF9054404E030205A46179990476D1C37
:1044C0000099481E00900029F5DC08E00298029946
:1044D0005A460078491C0291179990476D1CBAF111
:1044E0000001AAF1010AF1DC65E1000009280100E0
:1044F000303132333435363738396162636465665A
:10450000000000003031323334353637383941421B
:10451000434445460000000000F058F90544761C6D
:10452000307800287FF4ECAD19B02846BDE8F08F54
:10453000620700D4062709F1070222F0070CFCE805
:104540000223E14603F000485FEA080C02D00FF2B4
:10455000702C0DE05FEA045C02D50FF2682C07E0D6
:104560005FEAC47C02D00FF2602C01E0AFF2700C65
:104570004FF0FF3823F00043CDF850C065280CD031
:1045800006DC452809D046281DD047283DD13DE00E
:10459000662818D067287ED138E00021112F01DB72
:1045A000112000E0781CCDE9000106A90EA8FFF754
:1045B000D5FCDDE90F010E9A03910021009207F16D
:1045C000010A04914DE04FF000400097CDE9011041
:1045D00006A90EA8FFF7C2FCDDE90F0203920E9BAD
:1045E00011990022DDF80CA00093049211B9791CF6
:1045F00000EB010AB7EB0A0004D4C0F1FF3007F169
:10460000010A0490AAEB0700019044E0012F00DAB0
:1046100001270021112F01DD112000E03846CDE9EE
:10462000000106A90EA8FFF799FCDDE90F010E9A1B
:104630000391002104910092BA4621070CD40399FA
:10464000514500DA8A46BAF1010F05DD009AAAF158
:104650000101515C302908D0B84202DA10F1040F90
:1046600006DA0121CDE9011015E0AAF10101E9E71F
:10467000002805DC049901440491AAEB000102E042
:10468000411C514500DD8A460499401A401C0190A6
:104690004FF000400290200704D40198504501DB00
:1046A000CDF8048000208DF84F0002980DF14F07DF
:1046B000B0F1004F25D02B200E9002984FF0020849
:1046C00000280CDA404202902D200E9007E00A21CB
:1046D0000298FFF771F83031029007F8011DB8F128
:1046E0000001A8F10108F2DC02980028EFD1791E40
:1046F0000E980870307800F0200040F0450007F870
:10470000020D12A8C01B00F107081498007800B130
:10471000012000EB0A01019801EBE071059841448A
:10472000401A401E0590E00306D45B462146179AC6
:10473000059800F05DF805441498007818B15A46C1
:10474000179990476D1CE00324D55B462146179AC4
:10475000059800F04DF805441CE00498002807DB9C
:10476000DDE90301884203DD0098405C179901E010
:10477000179930205A469047049805F10105401CCE
:1047800004900198401E019004D12E205A4617999A
:1047900090476D1CBAF10001AAF1010ADDDC05E0C9
:1047A00017F8010B5A46179990476D1CB8F1000194
:1047B000A8F10108F4DC5B462146179A0598ABE6A0
:1047C0002D0000002B000000200000002DE9F0412A
:1047D000044600251E461746880404D405E03946E1
:1047E0002020B0476D1C641EF9D52846BDE8F08135
:1047F0002DE9F041044600251E469046C80301D528
:10480000302700E02027880404D505E041463846DB
:10481000B0476D1C641EF9D52846BDE8F08130B55F
:1048200083B00446FFF77EFB05460020CDE900007B
:10483000024621466846FFF752F82846FFF788FBF4
:10484000DDE9000103B030BDDDDDDDDDDCBBBBDD5E
:10485000DDDDDDDDDDDDDDDD988888888888888820
:104860007777777777888888855555566666666640
:10487000666666666668888883333332222222221F
:10488000222222222228888DA84800080000002029
:1048900008020000AC3E000834490008080200206D
:1048A00068040000403F0008201148E19A3FF628C4
:1048B0009C3FA4709D3F52B89E3F081712A03FAE88
:1048C00047A13F5C8FA23F0AD7A33FB81EA53F9ADE
:1048D00099993F280C376666A6040C373333B30426
:1048E000210A37C0040C37CDCCCC04124812451233
:1048F0004112447A30026148099A99993F8FC2F572
:104900003C0C7A190C011828090AD7A33D66666683
:104910003F08615A809C1A8C086910012384A24ABE
:1049200004680901020304060708090C691005243C
:04493000020406086F
:04000005080000ED02
:00000001FF
