:020000040800F2
:10000000380B0020050100082D0600082F06000807
:1000100033060008370600083B0600080000000011
:100020000000000000000000000000003F06000883
:1000300041060008000000004306000845060008CD
:100040001F0100081F0100081F0100081F01000810
:100050001F0100081F0100081F0100081F01000800
:100060001F0100081F0100081F0100081F010008F0
:100070001F0100081F0100081F0100081F010008E0
:100080001F0100081F0100081F0100081F010008D0
:100090001F0100081F0100081F010008A9390008FE
:1000A0001F0100081F0100081F0100081F010008B0
:1000B000F5040008C52500081F0100081F010008FD
:1000C0001F0100081F0100081F0100081F01000890
:1000D0001F010008F12400081F0100081F0100088B
:1000E0001F0100081F0100081F010008DFF810D0E1
:1000F00004F08EFC00480047D5030008AFF30080F1
:10010000380B00200648804706480047FEE7FEE718
:10011000FEE7FEE7FEE7FEE7FEE7FEE7FEE7FEE7B7
:1001200027070008ED0000083EB50A24C82003F0A8
:10013000F5FC562815D12246F949002003F084FD2C
:100140002246F849204603F07FFD60002246F6492A
:1001500003F07AFD04EB44002246F44903F074FDF9
:100160002AE04FF07E51684603F020F9EC480099F0
:10017000016001994160BDF8081001814FF07E5186
:10018000684603F013F9E74800990160019941605E
:10019000BDF8081001814FF07E51684603F006F962
:1001A000E1480099016001994160BDF808100181A2
:1001B0005621C82003F0DEFCDC4A0021282003F091
:1001C00019FAD74A6421282003F014FAD54A782175
:1001D000282003F00FFAD548016800914168019189
:1001E0000089ADF80800029A009803F0A6F9D049FA
:1001F0000860CB4801680091416801910089ADF821
:100200000800029A009803F098F9CA490860C548A6
:1002100001680091416801910089ADF80800029AD7
:10022000009803F08AF9C4490860BF48016800914A
:10023000416801910089ADF80800029A009803F026
:100240007CF9BE4908600A22B549002003F00DFD83
:100250000A22B449204603F008FD60000A22B24990
:1002600003F003FD04EB44000A22B04903F0FDFC57
:100270003EBD70B5024601231BE00025002011E0C1
:1002800032F81040461C32F81660A64208DA461CC6
:1002900032F8166022F81060461C22F8164001253C
:1002A000461CF0B2CE1A8642EADC05B903E05E1CB9
:1002B000F3B28B42E1DD00BF70BD10B5002406E053
:1002C00003F09EFE9E4921F81400601CC4B20F2C5E
:1002D000F6DB0F219A48FFF7CCFF9948C08910BD83
:1002E0002DE9F0479748008804F09FF9824604F012
:1002F000F8F906460022944B04F01FF90446002248
:10030000924B04F0A8F8804604F02EFA9049086059
:10031000084601688648006803F080FF8D49086040
:10032000084601688448006803F07EFF05468A4855
:1003300001688848006803F071FF06467D4801683F
:10034000304603F071FF0446294603F015FF834948
:100350000860084601688248006803F05FFF804932
:1003600008600846006804F0BCF9044600227D4B92
:1003700004F0E2F903D27C48794908600DE078483E
:10038000006804F0AEF904464FF06632774B04F093
:10039000BBF902D27648724908607148006804F0DF
:1003A000A0F980460022694B04F0C7F806460022F7
:1003B000704B04F050F8044604F07AF96E49088056
:1003C0006448006864490860614800686B490860D7
:1003D000BDE8F08701F0B6FF02F024F803F0B6FEA6
:1003E00002F0CCF803F094FA03F094FB03F0BCFDA8
:1003F00003F094FE4FF4E13002F028F80020604949
:100400008870604988706049887040215F4800F0BA
:1004100086FB1D2140F2572003F0FAFA02F0E3FBBD
:100420004FF478411F2002F01DFC03F01EFA4FF636
:10043000E0711F2002F016FC00BF5548006850B95B
:1004400002F09CF803F064FAFFF76EFE03F09DFAE9
:1004500002F0B4F8F1E7FFF730FF3A490880FFF700
:100460003FFF3348006804F03CF9044622460B463F
:1004700048A004F00BFB3648006804F032F904464B
:1004800022460B4646A004F001FB3548006804F004
:1004900028F9044622460B4644A004F0F7FA2948FE
:1004A000018845A004F0F2FA2C48006804F019F91C
:1004B000044622460B4643A004F0E8FA1D480068B3
:1004C00004F00FF9044622460B4641A004F0DEFA80
:1004D0001948006804F005F9044622460B463FA07F
:1004E00004F0D4FA39A004F0D1FA4FF47A7001F094
:1004F00066FFA2E710B50121880701F00EFF012871
:1005000074D13948007810B1012879D16FE01A49C7
:10051000098847F6FF72114488B203F0F8FD6FE0D6
:10052000DA010020E4010020EE010020D0010020CB
:100530006001002044010020480100204C010020FF
:10054000F801002074010020E0FFEF40000014409B
:100550006401002058010020540100206C0100209B
:100560005C01002000000C40000060406666F63F21
:100570003333B33FC0FFDF40760100206801002025
:10058000AA010020AD010020B001002000100140B0
:100590002C01224253563A252E33660D0A000000E4
:1005A0004D563A252E33660D0A00000050563A2566
:1005B0002E33660D0A00000041445F4156473A253C
:1005C000640D0A0064656C74613A25640D0A0000CC
:1005D0004B703A252E33660D0A0000004B693A2510
:1005E0002E33660D0A000000CC01002018E00D49F2
:1005F000098847F6FF72511A88B203F088FD00BFE0
:1006000000BF09480078401C074908700846007878
:10061000022801DB002008700121880701F08EFE0E
:1006200010BD000076010020CC010020704700BF03
:10063000FEE700BFFEE700BFFEE700BFFEE7704732
:1006400070477047704700000CB500200190009083
:100650006C48006840F480306A49086000BF69480F
:10066000006800F4003000900198401C0190009850
:1006700018B90198B0F5A06FF1D16248006800F494
:10068000003010B10120009001E00020009000989F
:10069000012843D15C48006840F010005A490860C6
:1006A0000846006820F0030008600846006840F033
:1006B0000200086053484068524948600846406854
:1006C00048600846406840F48060486008464068DA
:1006D00020F47C1048600846406840F4E810486008
:1006E0000846006840F08070086000BF4548006818
:1006F00000F000700028F9D04248406820F0030064
:10070000404948600846406840F00200486000BF29
:100710003C48406800F00C000828F9D10CBD10B529
:10072000FFF792FF10BD10B53648006840F0010099
:1007300034490860084640683449084031494860F7
:1007400008460068324908402E490860084600689B
:1007500020F4802008600846406820F4FE004860CD
:100760004FF41F008860FFF7DAFF4FF0006029495F
:10077000086010BD10B5002100200022214B5B68ED
:1007800003F00C0121B1042906D0082928D107E083
:10079000214B224C236027E01F4B204C236023E099
:1007A000184B5B6803F47010164B5B6803F48032DF
:1007B000022303EB904022B9194B4343174C2360AB
:1007C0000DE0104B5B6803F4003323B1144B43433B
:1007D000124C236003E0104B4343104C236003E0B2
:1007E0000D4B0E4C236000BF00BF064B5B68C3F38C
:1007F00003130C4CE15C094B1B68CB40074C236096
:1008000010BD000000100240002002400000FFF870
:10081000FFFFF6FE08ED00E000127A0078010020EC
:1008200000093D007C01002031490143314A11603B
:10083000704770B5002100230F22C47804B32D4CFB
:10084000246804F4E064C4F5E064210AC1F10403FF
:10085000CA40447804FA03F1847814402143090122
:10086000254C0678A155047804F01F050124AC40FE
:1008700005786D11AD0005F1E025C5F8004109E0EE
:10088000047804F01F050124AC401C4D0678761155
:1008900045F8264070BD1A4A0A400243154B1B1FFB
:1008A0001A60704739B1134A121D12680243114B86
:1008B0001B1D1A6006E00F4A121D126882430D4B81
:1008C0001B1D1A607047042808D14FF0E021096908
:1008D00041F004014FF0E022116107E04FF0E02108
:1008E000096921F004014FF0E02211617047000016
:1008F0000000FA050CED00E000E400E080E100E01B
:1009000080FFFF1F10B50446CC48844208D1012166
:10091000042000F02DFB0021042000F029FB46E01C
:10092000C748844208D10121082000F021FB0021A2
:10093000082000F01DFB3AE0C248844208D10121A2
:10094000102000F015FB0021102000F011FB2EE01C
:10095000BD48844208D10121202000F009FB00217C
:10096000202000F005FB22E0B848844208D1012194
:10097000402000F0FDFA0021402000F0F9FA16E0D6
:10098000B348844208D10121802000F0F1FA00210F
:10099000802000F0EDFA0AE0AE48844207D1012140
:1009A000801500F0E5FA0021A01500F0E1FA10BD75
:1009B00010B50121084600F0DBFA0021012000F00B
:1009C000D7FA10BD2DE9F04102460025002600208F
:1009D00000230024002791F803C00CF00F0591F8C4
:1009E00003C00CF0100CBCF1000F03D091F802C052
:1009F0004CEA050591F800C0BCF1000F31D0146835
:100A000000202BE04FF0010C0CFA00F3B1F800C00D
:100A10000CEA03069E4220D183004FF00F0C0CFA23
:100A200003F7BC4305FA03FC4CEA040491F803C045
:100A3000BCF1280F06D14FF0010C0CFA00FCC2F8F3
:100A400014C00AE091F803C0BCF1480F05D14FF083
:100A5000010C0CFA00FCC2F810C0401C0828D1D3CD
:100A60001460B1F800C0BCF1FF0F34DD5468002001
:100A70002EE000F1080C4FF0010808FA0CF3B1F871
:100A800000C00CEA03069E4221D183004FF00F0CF8
:100A90000CFA03F7BC4305FA03FC4CEA040491F892
:100AA00003C0BCF1280F05D100F1080C08FA0CF8BE
:100AB000C2F8148091F803C0BCF1480F07D100F1CF
:100AC000080C4FF0010808FA0CF8C2F81080401C1E
:100AD0000828CED35460BDE8F0814FF6FF71018045
:100AE000022181700421C170704702460020936882
:100AF0000B400BB1012000E00020704701468868E0
:100B000080B2704702460020D3680B400BB1012031
:100B100000E0002070470146C86880B2704701615C
:100B20007047416170470AB1016100E0416170475F
:100B3000C16070474FF480320A43826181618261F3
:100B400082698269704702460020434B18684FF65D
:100B50008073184040EA021008433F4B186070470A
:100B60003E49C8617047F0B50A46002300240021C1
:100B7000002500F00046B6F1004F02D1364EF16973
:100B800001E0354E7168C0F3034583B200F44016AE
:100B9000B6F5401F08D121F070612F4E766826F01F
:100BA00070662D4F7E6012E000F48016B6F5801F4F
:100BB00006D1032606FA05F4A14341F0706106E070
:100BC000460D360103FA06F6B14341F0706122B1D9
:100BD000460D360103FA06F6314300F00046B6F141
:100BE000004F02D11C4EF16101E01B4E7160F0BD5F
:100BF00030B500228B071C0F0F2303FA04F2164BAB
:100C000008338C1053F824309343134C08348D1060
:100C100044F8253023468C1053F824308C07240FD9
:100C200000FA04F423430C4C08348D1044F82530AA
:100C300030BD0A49DC3108607047000000080140FF
:100C4000000C014000100140001401400018014058
:100C5000001C014000200140000001400000204233
:100C6000DF48006840F00100DD4908600846406840
:100C7000DC490840DA49486008460068DA4908401B
:100C8000D74908600846006820F4802008600846BC
:100C9000406820F4FE0048604FF41F0088607047F1
:100CA000CF49096821F48031CD4A116011460968A5
:100CB00021F480211160B0F5803F03D0B0F5802F82
:100CC0000ED106E0C649096841F48031C44A11607A
:100CD00007E0C349096841F4A021C14A116000E05E
:100CE00000BF00BF704710B501460022002300205E
:100CF0004A11012A02D1BA4C236806E0022A02D125
:100D0000B74C236A01E0B64C636A01F01F0201246C
:100D100094401C400CB1012000E0002010BD38B50B
:100D2000002000900024002500BF3120FFF7DBFFEA
:100D300005460098401C00900098B0F5A06F01D0C7
:100D4000002DF2D03120FFF7CEFF08B1012400E0E2
:100D50000024204638BD01460020A14A106820F03A
:100D6000F80040EAC10010607047A0490860704771
:100D7000024600209A4B586820F47C1042EA010396
:100D80001843974B5860704798490866704701466A
:100D90000020934A506820F00300084350607047D9
:100DA0008F48406800F00C007047014600208C4AD4
:100DB000506820F0F0000843506070470146002062
:100DC000874A506820F4E06008435060704701464D
:100DD0000020834A506820F4605040EAC10050600F
:100DE000704729B17E4A527A02437D4B5A7204E021
:100DF0007B4A527A82437A4B5A7270477B49D83188
:100E00000860704701460020754A506820F4404051
:100E10000843506070470021714A20321170704AB7
:100E200082F82010012802D004280AD104E0012110
:100E30006B4A2032117005E00521694A2032117099
:100E400000E000BF00BF704769490860704764490F
:100E5000096A0143624A1162704765494439086072
:100E6000704730B500210022002400235C4D6D68DE
:100E700005F00C0121B1042905D0082923D105E092
:100E80005C4D056022E05B4D05601FE0544D6D68D0
:100E900005F47012524D6D6805F48034022505EB9F
:100EA00092421CB9544D554305600BE04C4D6D68A2
:100EB00005F400351DB1504D5543056002E04D4D20
:100EC0005543056002E04B4D056000BF00BF444D37
:100ED0006D6805F0F0010909484D6B5C0568DD405F
:100EE00045603F4D6D6805F4E061090A434D6B5C58
:100EF0004568DD4085603A4D6D6805F46051C90A6A
:100F00003E4D6B5C4568DD40C560354D6D6805F450
:100F10004041890B3A4D6B5CC568B5FBF3F5056143
:100F200030BD29B12E4A526902432D4B5A6104E06B
:100F30002B4A526982432A4B5A61704729B1284A89
:100F400092690243264B9A6104E0254A92698243E2
:100F5000234B9A61704729B1214AD2690243204B41
:100F6000DA6104E01E4AD26982431D4BDA617047A0
:100F700029B11B4AD2680243194BDA6004E0184ACF
:100F8000D2688243164BDA60704729B1144A12695D
:100F90000243134B1A6104E0114A12698243104B59
:100FA0001A61704712494039086070470F49C86498
:100FB00070470B49C87170470948406A40F080701B
:100FC00007494862704701460020054A92680A4076
:100FD0000AB1012000E00020704701498872704783
:100FE000001002400000FFF8FFFFF6FE0000424242
:100FF0008004424200127A0000093D008C0100206A
:101000009C01002010B50446FB48844209D101210F
:101010008803FFF7ADFF00214FF48040FFF7A8FFE2
:1010200032E0F648844209D101214804FFF7ADFFC0
:1010300000214FF40030FFF7A8FF25E0F04884427C
:1010400009D101218804FFF7A0FF00214FF480207F
:10105000FFF79BFF18E0EB48844209D10121C80447
:10106000FFF793FF00214FF40020FFF78EFF0BE006
:10107000E548844208D101210805FFF786FF0021D9
:101080004FF48010FFF781FF10BD2DE9F04786B0C7
:1010900005460E460024A24600BFA1460027B0899F
:1010A00000B100BF2F462C8A4CF6FF700440F08838
:1010B00004432C82AC894EF6F3100440B088318989
:1010C0000843718908430443AC81AC8A4FF6FF4062
:1010D0000440B0890443AC8201A8FFF7C2FEC648B1
:1010E000874202D1DDF810A001E0DDF80CA0A8894C
:1010F00000F4004040B10AEBCA0000EB0A1031686E
:101100004900B0FBF1F807E00AEBCA0000EB0A1057
:1011100031688900B0FBF1F86420B8FBF0F00401FD
:101120002009642101FB1089A88900F4004040B126
:10113000322000EBC900B0FBF1F000F007000443DF
:1011400008E0322000EB09106421B0FBF1F000F060
:101150000F0004432C8106B0BDE8F0874FF4165110
:10116000016000218180C18001810C214181002129
:101170008181704710B502460020108A4FF2FF03AC
:1011800018400B884C8823438C882343CC88234306
:101190001843108210BD0021018041808180C180F0
:1011A000704721B1828942F40052828104E0828931
:1011B0004DF6FF731A4082817047F0B50346002454
:1011C00000260025002040F66A17B94200D100BF72
:1011D0001846C1F3421401F01F06012707FA06F56D
:1011E000012C01D10C3004E0022C01D1103000E0C0
:1011F00014301AB107682F43076002E00768AF4355
:101200000760F0BD1AB1838A0B43838202E0838AB0
:101210008B4383827047028A4FF6F0731A40028232
:10122000028A0A430282704782894FF2FF731A4092
:10123000828182890A438281704721B1828942F08A
:101240000202828104E082894FF6FD731A40828196
:101250007047028A4FF6DF731A400282028A0A43FD
:101260000282704721B1028A42F48042028204E085
:10127000028A4BF6FF731A4002827047C1F30802DC
:101280008280704701468888C0F3080070478189D2
:1012900041F0010181817047028BD2B20283028B3F
:1012A00042EA012202837047028B02F47F420283EA
:1012B000028B0A430283704721B1828A42F02002E6
:1012C000828204E0828A4FF6DF731A40828270477E
:1012D00021B1828A42F01002828204E0828A4FF6B3
:1012E000EF731A408282704721B1828A42F008026D
:1012F000828204E0828A4FF6F7731A408282704736
:1013000021B1828942F40042828103E08289C2F3E2
:101310000E028281704721B1828A42F40062828289
:1013200004E0828A4FF2FF731A4082827047828AF9
:101330004FF6FB731A408282828A0A438282704788
:1013400021B1828A42F00202828204E0828A4FF650
:10135000FD731A408282704702460020B1F5007F7B
:1013600000D100BF13880B400BB1012000E000202A
:10137000704701F40072B2F5007F00D100BFCA438C
:101380000280704770B5024600240023002500202B
:1013900040F66A16B14200D100BFC1F3421501F018
:1013A0001F03012606FA03F3012D02D1968933406B
:1013B00006E0022D02D1168A334001E0968A3340BE
:1013C0000C12012606FA04F41688344013B10CB14D
:1013D000012000E0002070BD10B50022002340F67F
:1013E0006A14A14200D100BF0A1201249440A3B2A2
:1013F000DC43048010BD0000003801400044004080
:1014000000480040004C004000500040002044498B
:101410000860091D0860091D0860091D0860414831
:101420003F4914310860704700213D498279002A04
:101430003AD00A46126803689A430B461A600A1D9E
:10144000126803689A430B1D1A60027911440A68F6
:1014500003681A430A60324A0832126803689A43E2
:101460002F4B08331A601A1D126803689A432C4BDD
:101470000C331A604279102A0ED11A1F12680368C1
:101480001A43274B08331A601A1D126803681A435F
:10149000234B0C331A600DE02149427911440A684C
:1014A00003681A430A6005E0027911440A68036878
:1014B0009A430A6070470021016001710C2141715B
:1014C0000021817170471649103109680143144A9F
:1014D00010321160704701460020114A1432126820
:1014E0000A400AB1012000E0002070470C49143185
:1014F00008607047014600200022094B1B6803EA80
:101500000102074B14331B680B4013B10AB10120D1
:1015100000E0002070470249143108607047000065
:1015200000040140FFFF0F0010B50446FE4884424E
:1015300008D10121C014FFF71BFD0021E014FFF7C3
:1015400017FDC4E0B4F1804F08D101210846FFF730
:101550001CFD00210120FFF718FDB8E0F34884428C
:1015600008D101210220FFF710FD00210220FFF722
:101570000CFDACE0EE48844208D101210420FFF7C5
:1015800004FD00210420FFF700FDA0E0E9488442AB
:1015900008D101210820FFF7F8FC00210820FFF7FF
:1015A000F4FC94E0E448844208D101211020FFF7C4
:1015B000ECFC00211020FFF7E8FC88E0DF488442C3
:1015C00008D101212020FFF7E0FC00212020FFF7B7
:1015D000DCFC7CE0DA48844208D101214014FFF7AA
:1015E000C7FC00216014FFF7C3FC70E0D5488442BB
:1015F00009D10121C804FFF7BBFC00214FF40020F2
:10160000FFF7B6FC63E0D048844209D10121080508
:10161000FFF7AEFC00214FF48010FFF7A9FC56E065
:10162000CA48844209D101214805FFF7A1FC0021E5
:101630004FF40010FFF79CFC49E0C548844208D1F4
:1016400001214020FFF7A1FC00214020FFF79DFC75
:101650003DE0C048844208D101218020FFF795FC7D
:1016600000218020FFF791FC31E0BB48844208D183
:1016700001218015FFF789FC0021A015FFF785FCEB
:1016800025E0B648844209D101210804FFF770FC27
:1016900000214FF48030FFF76BFC18E0B048844223
:1016A00009D101214804FFF763FC00214FF4003009
:1016B000FFF75EFC0BE0AB48844208D101218804AF
:1016C000FFF756FC00214FF48020FFF751FC10BDBE
:1016D00000220288944B98420ED0994B98420BD02E
:1016E000B0F1804F08D0914B984205D0904B984272
:1016F00002D0904B984204D14FF68F731A404B881A
:101700001A438D4B984207D08C4B984204D04FF629
:10171000FF431A40CB881A4302808B8883850B884D
:101720000385814B98420BD0854B984208D08B4B58
:10173000984205D08A4B984202D08A4B984201D1F8
:101740000B7A038601238382704770B50024002240
:101750000023058C4FF6FE7635400584028C838885
:10176000048B4FF68F752C40B51E2C400D882C43F2
:10177000751E2A400D892A434D882A436A4DA84286
:101780000BD06F4DA84208D0744DA84205D0744DBF
:10179000A84202D0734DA84213D14FF6F7752A40E4
:1017A0004D892A434FF6FB752A408D882A434FF610
:1017B000FF652B404FF6FF552B408D892B43CD897C
:1017C0002B4383800483CD888586028470BD70B5E9
:1017D000002400220023058C4FF6EF763540058467
:1017E000028C8388048B48F6FF752C404FF6FF452A
:1017F0002C400D884FF6FF7606EA05252C434FF660
:10180000DF752A400D8906EA05152A434D8806EA48
:1018100005152A43444DA84202D0494DA8421DD186
:101820004FF67F752A404D894FF6FF7606EA05157B
:101830002A434FF6BF752A408D8806EA05152A43CC
:101840004FF6FF352B404FF2FF752B408D8906EA8E
:1018500085052B43CD8906EA85052B4383800483C8
:10186000CD880587028470BD70B500240022002356
:10187000058C4FF6FF6635400584028C8388848B87
:101880004FF68F752C404FF6FC752C400D882C437D
:101890004FF6FF552A400D894FF6FF7606EA0525DB
:1018A0002A434D8806EA05252A431F4DA84202D047
:1018B000234DA8421DD14FF2FF752A404D894FF6A6
:1018C000FF7606EA05252A434FF6FF352A408D8824
:1018D00006EA05252A434EF6FF752B404DF6FF75A7
:1018E0002B408D8906EA05152B43CD8906EA05159F
:1018F0002B4383808483CD888587028470BD70B537
:10190000002200230024058C4EF6FF763540058426
:10191000038C8488828B48F6FF752A404FF6FF457A
:101920002A400D8820E00000002C01400004004007
:1019300000080040000C004000100040001400406F
:1019400000340140004C014000500140005401406F
:1019500000180040001C00400020004000400140F2
:1019600000440140004801404FF6FF7606EA052595
:101970002A434DF6FF752B400D8906EA05352B43AA
:101980004D8806EA05352B43FA4DA84202D0FA4DA0
:10199000A84208D14BF6FF752C408D894FF6FF7693
:1019A00006EA85152C4384808283CD88A0F84050B8
:1019B000038470BD828B4FF2FF331A408283828B87
:1019C0004FF6FF7303EA01231A4382837047F0B591
:1019D0000C461546002200210026078C4EF6FF7C9F
:1019E00007EA0C070784828B018C4FF6FF7707EA22
:1019F000043640F6FF473A404FF6FF7707EA0527DF
:101A00003A434FF6FF7707EA03373A43D94FB842D4
:101A10000ED0D94FB8420BD0B0F1804F08D0D74F7D
:101A2000B84205D0D64FB84202D0D64FB84206D100
:101A30004DF6FF77394046F48057394305E047F6C5
:101A4000FF57394044F48057394382830184F0BD05
:101A5000828B4FF6F3731A408283828B0A43828310
:101A60007047F0B50C461546002200210026078C71
:101A70004FF6FF6C07EA0C070784828B018C4FF648
:101A8000FF7707EA04264FF60C773A404FF6FF77C8
:101A900007EA03172F433A43B64FB8420ED0B64F6A
:101AA000B8420BD0B0F1804F08D0B44FB84205D047
:101AB000B34FB84202D0B34FB84206D14FF6FF57EA
:101AC000394046F48077394305E04FF2FF573940FB
:101AD00044F48077394382830184F0BD028B4FF256
:101AE000FF331A400283028B4FF6FF7303EA012390
:101AF0001A4302837047F0B50C46154600220021B8
:101B00000026078C4FF6EF7C07EA0C070784028B50
:101B1000018C4FF6FF7707EA041640F6FF473A407C
:101B20004FF6FF7707EA03373A434FF6FF7707EAA6
:101B300005273A438F4FB8420ED08F4FB8420BD093
:101B4000B0F1804F08D08D4FB84205D08C4FB842CD
:101B500002D08C4FB84206D14FF6DF77394046F0BD
:101B60001007394305E04FF65F77394044F010071E
:101B7000394302830184F0BD028B4FF6F3731A40A0
:101B80000283028B0A4302837047F0B50C46154668
:101B900000220021068C4FF6FE773E400684028B21
:101BA000018C4FF60C7632407E1C06EA03162E435B
:101BB0003243704EB0420ED06F4EB0420BD0B0F1F7
:101BC000804F08D06D4EB04205D06D4EB04202D06D
:101BD0006C4EB04206D14FF6FD76314044F001061E
:101BE000314305E04FF6F576314044F001063143CC
:101BF00002830184F0BD70B505460C465D48854200
:101C00000ED05D4885420BD0B5F1804F08D05B48BF
:101C1000854205D05A48854202D05A48854200D1B3
:101C200000E000BF208850B92389A2886188284637
:101C3000FFF7ABFFE1882846FFF79EFF25E02088ED
:101C400004280AD12389A28861882846FFF753FF18
:101C5000E1882846FFF742FF17E0208808280AD1CC
:101C60002389A28861882846FFF7FBFEE188284681
:101C7000FFF7EEFE09E02389A28861882846FFF776
:101C8000A6FEE1882846FFF795FE70BD2DE9F041DC
:101C900005460C4600260127608808B9022600E0A8
:101CA0000026A088012801D1022700E00127208812
:101CB000A0B92389A28861882846FFF766FFE188DA
:101CC0002846FFF759FF23893A4631462846FFF751
:101CD00012FFE1882846FFF701FF13E02389A2885D
:101CE00061882846FFF707FFE1882846FFF7F6FEE0
:101CF00023893A4631462846FFF747FFE1882846C0
:101D0000FFF73AFFBDE8F0810A884B881A438B88B9
:101D10001A43CB881A430B891A434B891A438B8980
:101D20001A43A0F8442070474FF6FF7181800021CC
:101D30000180C18041800172704700210180418093
:101D40008180C180018141818181C18170470021F1
:101D500001804180012181800021C1800181704783
:101D60000021018041808180C18001814181818188
:101D700070470000002C0140003401400004004086
:101D800000080040000C004021B1028842F001022E
:101D9000028004E002884FF6FE731A40028070470A
:101DA00031B1B0F8442042F40042A0F8442005E0EC
:101DB000B0F84420C2F30E02A0F8442070471AB1D4
:101DC00083890B43838102E083898B43838170473E
:101DD0008182704741EA0203A0F8483070471AB187
:101DE00083890B43838102E083898B43838170471E
:101DF00001894FF6F8721140018170470A460021AF
:101E000001894FF68F73194011430181704730B536
:101E100004460D4629462046FFF7F0FF208940F092
:101E20000700208130BD2DE9F04104460D461646DD
:101E30001F46602D06D13B46012231462046FFF762
:101E40005AFE05E03B46012231462046FFF79DFE43
:101E500029462046FFF7D2FF208940F00700208165
:101E6000BDE8F08130B50C4600210189C9B24FF6BA
:101E7000FF7505EA0325154325432943018130BD3C
:101E80002DE9F04105460E46174698460024434684
:101E90003A4631462846FFF7E5FF2C894FF6F870A1
:101EA000044044F007044FF68F70044044F070047F
:101EB0002C81BDE8F081F0B504460D4616461F465C
:101EC0003B46324629462046FFF7CCFF208940F4A6
:101ED00080402081F0BD0185828270470A46002142
:101EE00001884FF68F731940114301807047F0B598
:101EF0000C4615461E460021002200230189028B54
:101F0000038C4FF6F877394021434FF6FC473A40AF
:101F100040F201173A434FF6DD773B404FF6FF772B
:101F200007EA06172F433B43018102830384F0BD78
:101F30000A460021018B4FF68F731940114301832C
:101F400070470A460021018B48F6FF7319404FF68F
:101F5000FF7303EA02231943018370470A460021F5
:101F6000818B4FF68F7319401143818370470A4666
:101F70000021818B48F6FF7319404FF6FF7303EA87
:101F8000022319438183704721B1028842F0800205
:101F9000028004E002884FF67F731A400280704787
:101FA00021B1828842F00402828004E082884FF6E8
:101FB000FB731A408280704721B1828842F0080288
:101FC000828004E082884FF6F7731A40828070475F
:101FD00021B1828842F00102828004E082884FF6BB
:101FE000FE731A40828070470A460021018B4FF62B
:101FF000F77319401143018370470A460021018B92
:102000004FF2FF7319404FF6FF7303EA022319439F
:10201000018370470A460021818B4FF6F773194000
:102020001143818370470A460021818B4FF2FF7371
:1020300019404FF6FF7303EA022319438183704767
:102040000A460021018B4FF6FB73194011430183AF
:1020500070470A460021018B4FF6FF3319404FF6B7
:10206000FF7303EA02231943018370470A460021E4
:10207000818B4FF6FB7319401143818370470A46E9
:102080000021818B4FF6FF3319404FF6FF7303EAAF
:1020900002231943818370470A460021018B4FF6C2
:1020A0007F7319401143018370470A460021018B59
:1020B000C1F30E014FF6FF7303EA022319430183B4
:1020C00070470A460021818B4FF67F7319401143F8
:1020D000818370470A460021818BC1F30E014FF6C0
:1020E000FF7303EA02231943818370470A460021E4
:1020F000018C4FF6FD7319401143018470470A4665
:102100000021018C4FF6F773194011430184704789
:102110000A460021018C4FF6DF7319404FF6FF731A
:1021200003EA02131943018470470A460021018C17
:102130004FF67F7319404FF6FF7303EA02131943FA
:10214000018470470A460021018C4FF6FF53194065
:102150004FF6FF7303EA02231943018470470A46CE
:102160000021018C4FF2FF7319404FF6FF7303EA11
:1021700002231943018470470A460021018C4DF661
:10218000FF7319404FF6FF7303EA023319430184CA
:10219000704730B5002301248C40A3B2048C9C43CB
:1021A0000484048C02FA01F5ADB22C43048430BDE2
:1021B00030B5002304248C40A3B2048C9C430484D7
:1021C000048C02FA01F5ADB22C43048430BD70B525
:1021D0000346002000241846183001258D40ACB27B
:1021E0001D8CA5431D8409B1082909D100EB6100AC
:1021F000056825F0700505600568154305600EE06B
:102200000D1FC5F34E052844056825F4E04505601B
:1022100005684FF6FF7606EA02263543056070BD75
:1022200021B1028842F00202028004E002884FF6E7
:10223000FD731A400280704721B1028842F0040207
:10224000028004E002884FF6FB731A400280704758
:1022500021B1828842F08002828004E082884FF6B9
:102260007F731A408280704702884FF6F7731A40D6
:10227000028002880A430280704782884FF68F737B
:102280001A40828082880A438280704702894FF612
:10229000F8731A40028102890A4302817047028959
:1022A0004FF67F731A40028102890A430281704708
:1022B00081847047818570478186704701877047A8
:1022C00081877047A0F84010704702884FF6FF439F
:1022D0001A40028002880A43028070470146888EB5
:1022E00070470146088F70470146888F7047014646
:1022F000B1F8400070470146888C70470146088D50
:10230000704702460020138A0B400BB1012000E009
:1023100000207047CA430282704730B50246002051
:1023200000230024158A05EA0103958905EA0104C2
:1023300013B10CB1012000E0002030BDCA4302827D
:102340007047000010B56FF00400FEF7BCFA31488A
:1023500000683149B0FBF1F0304908700846007858
:1023600000EB4001C1EBC0104FF6FF7101EAC00065
:102370002B49088010BD0146284A12784A434FF085
:10238000E0235A6100229A611A46126942F0010262
:102390001A6100BF4FF0E022106900F001021AB18B
:1023A00000F48032002AF5D04FF0E022126922F0CA
:1023B00001024FF0E0231A6100229A617047014642
:1023C000174A12884A434FF0E0235A6100229A616B
:1023D0001A46126942F001021A6100BF4FF0E02272
:1023E000106900F001021AB100F48032002AF5D021
:1023F0004FF0E022126922F001024FF0E0231A614F
:1024000000229A61704700E000BF011EA0F10100A8
:10241000FAD170477801002000127A00A001002054
:10242000A201002010B54FF4A060FEF7FDF910BD29
:1024300000BF704700BF4D4A128802F04002002AD8
:10244000F9D0C2B2494B1B1D1A80704710B586B037
:102450000446012144F20800FEF770FD0121084600
:10246000FEF76CFD01210420FEF77DFB4020ADF856
:10247000140003208DF8160018208DF8170005A908
:102480003B48FEF79FFA8020ADF8140004208DF839
:10249000170005A93648FEF795FA25208DF80000AB
:1024A00003208DF801008DF8020001208DF8030053
:1024B0006846FEF7BEF901940020ADF80800ADF8BB
:1024C0000A00ADF80C00ADF810000C20ADF80E00BD
:1024D00001A92648FEF7D9FD012240F225512348E3
:1024E000FEF76BFE01212148FEF75BFE06B010BD32
:1024F00010B540F225511D48FEF744FF10B31B48AC
:10250000FEF7C0FEC4B21B48008800F40040C8B902
:102510001848008800F4804060B10A2C03D00020E5
:102520001449088020E01348008840F40040114915
:10253000088019E00D2C06D10E48008840F4804038
:102540000C49088010E00B480088C0F30D000A49D0
:102550000C5408480088401C06490880084600883A
:10256000132801DD0020088010BD00000038014064
:10257000000C0140A80100202002002008B5012124
:102580003020FEF7DBFC4FF4C050ADF80000032014
:102590008DF8020048208DF8030069462E48FEF7AA
:1025A00011FA0420ADF8000069462C48FEF70AFA3B
:1025B000632140F60F6001F06CFA08BD10B501F020
:1025C00093FA10BD10B501212548FFF7A6FE01289A
:1025D00040D12448007823494870234801680120ED
:1025E0008843204908700846007830B10846407892
:1025F00018B908468078401C88701C4800781B4930
:1026000048701948001D0168012088431749087067
:102610000846007830B10846407818B908468078F6
:10262000401C8870124800781149487011480168B0
:10263000012088430E4908700846007830B10846EA
:10264000407818B908468078401C887001210448F9
:10265000FFF774FE10BD000000100140001401409F
:1026600000040040AA0100202C012242AD010020FC
:10267000B0010020088122420021FE4A1160C109F8
:10268000FD4AC2F898110021FA4A0832116001216E
:102690001160C0F38011121F11600021121D116022
:1026A00001211160C0F34011121F11600021121DA1
:1026B000116001211160C0F30011121F116000218F
:1026C000121D116001211160C0F3C001121F1160C1
:1026D0000021121D116001211160C0F38001121F41
:1026E00011600021121D116001211160C0F3400131
:1026F000121F11600021121D11600121116000F0F4
:102700000101121F11600021121D116001211160D1
:1027100070470121D74A1160C109D74AC2F8981100
:102720000021D44A0832116001211160C0F38011E8
:10273000121F11600021121D116001211160C0F3F0
:102740004011121F11600021121D11600121116042
:10275000C0F30011121F11600021121D1160012130
:102760001160C0F3C001121F11600021121D116021
:1027700001211160C0F38001121F11600021121DA0
:10278000116001211160C0F34001121F116000218E
:10279000121D11600121116000F00101121F116072
:1027A0000021121D116001211160704708B501213F
:1027B0000920FEF7C3FB0121B048FEF7D4F9F82049
:1027C000ADF8000003208DF8020010208DF8030002
:1027D0006946AB48FEF7F6F84FF48070ADF800009C
:1027E00004208DF803006946A548FEF7EBF8F821B0
:1027F000A348FEF794F900209E49091F08600A20AB
:10280000FFF7B9FD01209C49C1F890011420FFF7A2
:10281000D6FD00209749083908602120FFF72CFFDA
:10282000CB20FFF729FF3920FFF773FF2C20FFF79C
:1028300070FF0020FFF76DFF3420FFF76AFF0220D2
:10284000FFF767FFCF20FFF717FF0020FFF761FFBB
:10285000C120FFF75EFF3020FFF75BFFE820FFF7A6
:102860000BFF8520FFF755FF0020FFF752FF782070
:10287000FFF74FFFEA20FFF7FFFE0020FFF749FFB9
:102880000020FFF746FFED20FFF7F6FE6420FFF77C
:1028900040FF0320FFF73DFF1220FFF73AFF8120A2
:1028A000FFF737FFF720FFF7E7FE2020FFF731FFA4
:1028B000C020FFF7E1FE2320FFF72BFFC120FFF729
:1028C000DBFE1020FFF725FFC520FFF7D5FE3E20D9
:1028D000FFF71FFF2820FFF71CFFC720FFF7CCFEE4
:1028E0008620FFF716FF3620FFF7C6FE4820FFF7C9
:1028F00010FF3A20FFF7C0FE5520FFF70AFFB12076
:10290000FFF7BAFE0020FFF704FF1820FFF701FFD2
:10291000B620FFF7B1FE0820FFF7FBFE8220FFF78D
:10292000F8FE2720FFF7F5FEF220FFF7A5FE0020B6
:10293000FFF7EFFE2620FFF79FFE0120FFF7E9FEDD
:10294000E020FFF799FE0F20FFF7E3FE3120FFF7AD
:10295000E0FE2B20FFF7DDFE0C20FFF7DAFE0E2055
:10296000FFF7D7FE0820FFF7D4FE4E20FFF7D1FE79
:10297000F120FFF7CEFE3720FFF7CBFE0720FFF751
:10298000C8FE1020FFF7C5FE0320FFF7C2FE0E2091
:10299000FFF7BFFE0920FFF7BCFE0020FFF7B9FEDE
:1029A000E120FFF769FE0020FFF7B3FE0E20FFF7DE
:1029B000B0FE1420FFF7ADFE0320FFF7AAFE1120A2
:1029C000FFF7A7FE0720FFF7A4FE3120FFF7A1FEC7
:1029D000C120FFF79EFE4820FFF79BFE0820FFF76F
:1029E00098FE0F20FFF795FE0C20FFF792FE312096
:1029F000FFF78FFE3620FFF78CFE0F20FFF789FED2
:102A00002120FFF739FE1120FFF736FE3C20FFF7AB
:102A1000D6FC2920FFF730FE08BD00B52820FFF7BF
:102A20002BFE1020FFF728FE00BD00B5034618124C
:102A3000FFF76FFED8B2FFF76CFE00BD002000214B
:102A40000C4A083211600C49D1F82411C90740EA38
:102A50001160012111600021074AC2F89C1105494B
:102A600070390968890740EA11600121014A08327A
:102A7000116007E094812142008021420002300071
:102A8000000C01400021FE4AC2F89C11FD49096872
:102A9000490740EA11600121FA4A783211600021A9
:102AA000F74AC2F89C11F7490968090740EA116022
:102AB0000121F44A783211600021F14AC2F89C11D8
:102AC000F0490968C90640EA11600121ED4A7832EF
:102AD00011600021EA4AC2F89C11EA490968890696
:102AE00040EA11600121E74A783211600021E44A8E
:102AF000C2F89C11E3490968490640EA11600121C6
:102B0000E04A783211600021DD4AC2F89C1111467A
:102B1000D1F82411C9B208430121C2F89C117047B1
:102B200000B503461846FFF7A7FDFFF787FF00BD76
:102B300030B503461846FFF79FFD0020D149783194
:102B400008600120CE49C1F89C01FFF777FF05041A
:102B5000FFF774FF45EA0025FFF770FF45EA000420
:102B6000204630BD30B503461846FFF785FD0020EE
:102B7000C449783108600120C149C1F89C01FFF7C0
:102B80005DFF0506FFF75AFF45EA0045FFF756FFD0
:102B900045EA0025FFF752FF45EA0004204630BD14
:102BA00070B504460D4616462A20FFF765FD201233
:102BB000FFF7AFFDE0B2FFF7ACFD3012FFF7A9FD64
:102BC000F0B2FFF7A6FD2B20FFF756FD2812FFF706
:102BD000A0FDE8B2FFF79DFD1812FFF79AFDD8B2ED
:102BE000FFF797FD70BD30B540F23F13EF22002193
:102BF0000846FFF7D5FF2C20FFF73EFD00240CE030
:102C0000002505E0A0480088FFF70FFF681C85B28B
:102C1000B5F5A07FF6DB601C84B2F02CF0DB30BD94
:102C200030B504460D462B46224629462046FFF77E
:102C3000B7FF2C20FFF720FD94480088FFF7F5FE32
:102C400030BD30B504460D462B4622462946204667
:102C5000FFF7A6FF2C20FFF70FFD8B480088FFF73A
:102C6000E4FE30BDC243884B1A80CA43874B1A80AA
:102C700070472DE9FF4F804689469246039820B160
:102C8000824806888048078803E0804807887E4895
:102C9000068809F10F0083B208F1070082B24946A5
:102CA0004046FFF77DFF2C20FFF7E6FC00241AE0EA
:102CB000AAF1200004EB0010754911F800B00025BE
:102CC0000DE00120A84000EA0B0018B13046FFF7E4
:102CD000ACFE02E03846FFF7A8FE681CC5B2082D1E
:102CE000EFDB601CC4B2102CE2DBBDE8FF8F2DE9E6
:102CF000F0478046894615469A46002446464F4688
:102D000019E0E82E03DD002607F1100087B2B7F5C1
:102D1000987F00DD0027544501D1012000E000200C
:102D200003462A5D39463046FFF7A3FF601C84B294
:102D300006F1080086B2285D0028E2D12046BDE8F1
:102D4000F087FEB5034600240022002904DAFF259F
:102D50008DF80050484203E001258DF800500846E8
:102D600000BF0A2590FBF5F605FB1605EFB21546E8
:102D7000561CF2B2474E77550A2590FBF5F0002815
:102D8000EFD155B28DF809500BE0551EEDB22A4631
:102D9000404E755D6FB22546661CF4B20DF101061A
:102DA0007755002AF1D1009D1D60019D5D60BDF841
:102DB00008501D81FEBD2DE9FE4107468846164696
:102DC000002431466846FFF7BCFF9DF9000000284B
:102DD00006DA2D222046611CCCB22F490A5405E0A8
:102DE00020222046611CCCB22B490A5400250CE05D
:102DF0002846691CCDB20DF10101085C3030C2B229
:102E00002046611CCCB224490A549DF90900A8420D
:102E1000EEDC002020490855FF230A46414638468B
:102E2000FFF765FFBDE8FE812DE9FF4F81B08346C6
:102E300016469A460024A0460021304601F0B0FC18
:102E400008D22D222046611CCCB213490A5486F0C8
:102E5000004706E020222046611CCCB20E490A54ED
:102E60003746384601F010FC0546284601F0D4FBF1
:102E70003946009001F0D5F9814600BF0A200DE0E7
:102E80000080214224812142B4010020B6010020AB
:102E9000565300085C0200203402002095FBF0F13C
:102EA00000FB11503030C2B24046411C01F0FF0817
:102EB000FE490A540A2095FBF0F5002DDED10AE008
:102EC000A8F10100C0B28046F8490A5C2046611CA6
:102ED000CCB2F7490A54B8F1000FF1D12E222046A6
:102EE000611CCCB2F2490A541CE0F249484601F098
:102EF0009BF98146484601F0C7FB0546284601F08C
:102F00008BFB4946009001F08CF981460A2095FB25
:102F1000F0F100FB11503030C2B22046611CCCB23F
:102F2000E3490A54BAF10000AAF101011FFA81FA3B
:102F3000DBD1DF490855FF230A4658460299FFF7BF
:102F4000D6FE05B0BDE8F08F0FB42DE9F04186B094
:102F500007468846119D00249DF93800401C30B971
:102F60002D222046611CCCB2D1490A5405E0202212
:102F70002046611CCCB2CE490A549DF8390030304D
:102F8000C2B22046611CCCB2C9490A542E22204646
:102F9000611CCCB2C6490A5401260CE03046711CB3
:102FA0004EB20DF13901085C3030C2B22046611CCE
:102FB000CCB2BF490A54082EF0DB45222046611CE2
:102FC000CCB2BB490A549DF941106846FFF7B9FEDF
:102FD0009DE8070003AB07C39DF90C00002806DA43
:102FE0002D222046611CCCB2B1490A5405E02022B2
:102FF0002046611CCCB2AE490A5400260CE0304693
:10300000711C4EB20DF10D01085C3030C2B2204689
:10301000611CCCB2A6490A549DF91500B042EEDC01
:103020000020A34908550A2D1DD2DFE805F005064A
:103030000D0E0F101112131400BF2B469C4A41466F
:103040003846FFF754FE16E000BF00BF00BF00BFC8
:1030500000BF00BF00BF681CC3B2954A4146384656
:10306000FFF745FE07E0681CC3B2914A4146384667
:10307000FFF73DFE00BF00BF06B0BDE8F0015DF800
:1030800014FB8D4A10808D4A118070472DE9FF4F47
:1030900084B081468A460020039002900698A0EBF7
:1030A00009050798A0EB0A06CDF80490CDF800A01A
:1030B000002D01DD012705E00DB9002702E04FF0EA
:1030C000FF376D42002E02DD4FF0010806E016B911
:1030D0004FF0000802E04FF0FF387642B54201DDC4
:1030E0002C4600E034464FF0000B21E0009A91B2EC
:1030F000019A90B2FFF794FD039828440390029838
:10310000304402900398A04205DD0398001B039011
:103110000198384401900298A04205DD0298001BF6
:1031200002900098404400900BF101001FFA80FBD0
:10313000A345DBDD08B0BDE8F08F2DE9FF4F84B07B
:1031400081468A460020039002900698A0EB09056C
:103150000798A0EB0A06CDF80490CDF800A0002D4A
:1031600001DD012705E00DB9002702E04FF0FF3730
:103170006D42002E02DD4FF0010806E016B94FF057
:10318000000802E04FF0FF387642B54201DD2C46E0
:1031900000E034464FF0000B21E0009A91B2019A12
:1031A00090B2FFF74EFD03982844039002983044F4
:1031B00002900398A04205DD0398001B039001983C
:1031C000384401900298A04205DD0298001B02904D
:1031D0000098404400900BF101001FFA80FBA345CA
:1031E000DBDD08B0BDE8F08F10B504463448016857
:1031F000204601F0DFFA01D231480460314801680D
:10320000204601F0CDFA01D22E4804602E48017804
:103210000078401C2C4A10702C4840F82140104681
:103220000078C82806DB0020114608702449086091
:103230002449086010BD2DE9F84F05460E46914619
:103240004946304600F0EAFF8346002101F0B2FA19
:1032500004D24946304600F0E1FF05E086F0004B1D
:103260004946584600F0DAFF009001F03AFA074666
:10327000174A184B01F048FA01D2BDE8F88F4946C9
:10328000304600F0CBFF07463946134800F0FEFFFA
:1032900082464946286800F0C1FF8046514600F04A
:1032A000C3FF074601F0F0F918E000005C020020BF
:1032B0003402002000002041B8010020BA010020A3
:1032C000BC010020C0010020C40100201404002023
:1032D0008DEDB5A0F7C6B03E0000484340F23F1167
:1032E000081AFE490880084601880020FFF798FC6C
:1032F000012419E055F82400494600F08FFF80466C
:10330000514600F091FF074601F0BEF940F23F112F
:10331000081AF24921F81400084630F81410204623
:10332000FFF77EFC601CC4B2C82CE3DB00BFA4E73F
:1033300010B5012407E0E94830F814102046FFF7E3
:1033400080FC601CC4B2C82CF5DB10BD2DE9F04335
:1033500004460D4616461F463B4632462946204641
:10336000FFF71EFC2C20FFF787F9A0460FE0A946C7
:1033700007E0DB480088FFF758FB09F101001FFA5E
:1033800080F9B945F5DD08F101001FFA80F8B04574
:10339000EDDDBDE8F083002005E00021D14A42F8D0
:1033A0002010411C88B2C828F7DB70472DE9F34F85
:1033B00085B00F464FF00009CA4600240020049053
:1033C0000021384601F0ECF905D2FF208DF8040009
:1033D00087F0004803E001208DF80400B84640461D
:1033E00001F039F90646304601F016F941460090E1
:1033F00000F017FF834613E00A2196FBF1F201FB70
:1034000012612046E21704EB5272D210A4EBC20202
:103410005244B54B99540A2096FBF0F6601C44B216
:10342000002EE9D10494082C18DB012513E0601B61
:10343000C11700EB5171C910A0EBC1015144AA4A58
:10344000515C4BB249464A1C02F0FF090DF10502DE
:103450005354681C45B2082DE9DD60E0012513E0F6
:10346000601BC11700EB5171C910A0EBC1015144A1
:103470009D4A515C4BB249464A1C02F0FF090DF1CE
:1034800005025354681C45B2A542E9DDC4B900BF2A
:103490009649584600F0C8FE8346584601F0DBF8CE
:1034A0000646304601F0B8F85946009000F0B9FEE3
:1034B00083460498401E40B20490002EE8D010E0ED
:1034C0008A49584600F0B0FE8346584601F0C3F8DA
:1034D0000646304601F0A0F85946009000F0A1FEE3
:1034E000834600BF72B24846411C01F0FF090DF14E
:1034F00005010A54601C44B27C49584600F094FE11
:103500008346584601F0A7F80646304601F084F895
:103510005946009000F085FE8346082CE2DB0498B3
:103520008DF80D0001990598016002994160BDF880
:103530000C10018107B0BDE8F08F2DE9F74785B089
:103540004FF000094FF0080A1AE00DF1150111F9CA
:103550000A0001F06FF807468846484601F0C1F8B6
:103560000546634A634B00F076FF3A464346CDE991
:10357000000100F0C9FECDE9020101F0F5F8814635
:10358000BAF10000AAF101014FFA81FADDD19DF9EB
:103590001D00002816DA9DF81D00404244B20BE0E1
:1035A000484601F09EF80746514A524B00F053FF3F
:1035B000054601F0D9F88146201EA4F101014CB264
:1035C000EED10CE09DF91D4004E04849484600F06A
:1035D0002BFE8146201EA4F101014CB2F5D19DF8CD
:1035E0001400012803D1484608B0BDE8F08789F0EF
:1035F0000040F9E72DE9F04385B08046894614463E
:1036000000250027FF2001902089ADF800002068E8
:103610000290606803902089ADF81000494640464A
:10362000DDE90223FFF790FCDCE03348076018E097
:10363000314800780A2190FBF1F201FB1200C5B27B
:1036400001952089ADF80000206802906068039021
:103650002089ADF8100049464046DDE90223FFF716
:1036600073FC264A917801EBD1725210A1EB420211
:1036700042B9234A907800EBD0725210A0EB42027C
:10368000002AD5D02F4645BB00201B4908601EE00C
:103690001949086800EBD0714910A0EB41014EB206
:1036A00016B10120207001E0FF20207001952089D3
:1036B000ADF8000020680290606803902089ADF8A2
:1036C000100049464046DDE90223FFF73DFC0B4A66
:1036D000917801EBD172521014E021E084020020B5
:1036E000B4010020140400205C02002000002041EE
:1036F0009A9999999999B93FC8010020AA01002087
:10370000AD010020A1EB4202012A6BD17C4A9078E6
:1037100000EBD0725210A0EB4202002A62D1B7E750
:10372000092D2BD194F909007649086014E07548F9
:10373000007846B2667201952089ADF800002068D5
:103740000290606803902089ADF810004946404619
:10375000DDE90223FFF7F8FB6B4A917801EBD172A8
:103760005210A1EB4202012A3CD1654A907800EB4D
:10377000D0725210A0EB4202A2BBD8E7681E611CB7
:103780000856604908601BE05E4800780A2190FBFB
:10379000F1F201FB120046B2681E611C0E54019545
:1037A0002089ADF8000020680290606803902089AD
:1037B000ADF8100049464046DDE90223FFF7C4FB9F
:1037C000514A917801EBD1725210A1EB4202012AC9
:1037D00008D14B4A907800EBD0725210A0EB420215
:1037E000002AD1D04649887800EBD0714910A0EB6F
:1037F000410100293FF419AF002043498870404936
:103800008870FF2001902089ADF8000020680290A8
:10381000606803902089ADF8100049464046DDE914
:103820000223FFF791FB05B0BDE8F083F0B5044635
:103830000D4605F10F0083B2EF2229462046FFF71F
:10384000AFF92C20FEF718FF00270BE0264605E015
:103850002E480088FFF7E9F8701C86B2F02EF7DBDF
:10386000781C87B2102FF1DBF0BD70B577230022F2
:1038700040F23F111046FFF709FC00241AE0052032
:1038800094FBF0F100FB114008B90A2500E0052582
:1038900004EB840040F23F16A6EB400083B22A46B8
:1038A00004EB8400A6EB400081B20020FFF7EEFBA2
:1038B000601CC4B2142CE2DD40F23F13C82219464A
:1038C0000020FFF7E3FB002417E0052094FBF0F154
:1038D00000FB114008B90A2500E0052540F23F1120
:1038E0004B1B04EB84014A0004EB8401480040F2C6
:1038F0003F11FFF7CBFB601CC4B2142CE5DD70BD9B
:10390000AD010020C8010020AA010020B401002060
:103910001FB501211520FDF711FB03208DF80E00C6
:1039200004208DF80F008001ADF80C0003A9344885
:10393000FDF748F84FF40070ADF80C0003A93148CA
:10394000FDF740F808210020FDF752F94FF4807090
:10395000019000208DF808000C208DF8090001204E
:103960008DF80A0001A8FDF75FFD17208DF8000013
:1039700002208DF8010000208DF8020001208DF852
:1039800003006846FCF755FF1FBD08B517208DF8EA
:10399000000000208DF803006846FCF74AFF4FF452
:1039A0008070FDF7B8FD08BD10B54FF48070FDF7CD
:1039B000A1FD012823D11448006870B113480068A4
:1039C000401C124908604FF480710E48FDF7A9F8B9
:1039D00080210C48FDF7A3F80DE00C480068401E5C
:1039E0000A49086080210748FDF79BF84FF4807171
:1039F0000448FDF794F84FF48070FDF78CFD10BD7E
:103A0000000801400010014024012242C8010020AA
:103A10007FB505460C4601210846FDF79CFAADF836
:103A200004500020ADF80600ADF80840ADF80A00DB
:103A300001A94FF08040FDF74BFE0122114690078F
:103A4000FEF7BDF91C208DF8000000208DF8010064
:103A500001208DF802008DF803006846FCF7E9FEAE
:103A600001218807FEF790F97FBD08B500214FF0CE
:103A70008040FEF789F91C208DF8000000208DF8A9
:103A800003006846FCF7D5FE01218807FEF756FCC7
:103A900008BD7FB505460C4601210220FDF75BFA03
:103AA000ADF804500020ADF80600ADF80840ADF8C0
:103AB0000A0001A91648FDF70BFE01221146144821
:103AC000FEF77DF91D208DF8000001208DF8010022
:103AD0008DF802008DF803006846FCF7AAFE01216C
:103AE0000B48FEF751F97FBD08B500210848FEF7E5
:103AF0004BF91D208DF8000000208DF8030068466A
:103B0000FCF797FE01210248FEF718FC08BD0000F3
:103B10000004004010B500F0D3F810BD70B50446A5
:103B2000002600F0F7F82546E11704EB11610912B1
:103B3000A02202EB4101C8B200F0A1F900F02DF97A
:103B4000E11704EB11610912A4EB0121C8B200F0E6
:103B500096F900F022F900F0DDF8A12000F08FF9CD
:103B600000F01BF9002000F0BEF9064600F0F4F862
:103B7000304670BD70B504460E4600F0CBF82546C1
:103B8000E11704EB11610912A02202EB4101C8B256
:103B900000F075F900F001F9E11704EB1161091269
:103BA000A4EB0121C8B200F06AF900F0F6F8304643
:103BB00000F065F900F0F1F800F0CEF80A20FEF709
:103BC000FEFB70BD2DE9F04105460E461746002468
:103BD00009E0E20026FA02F2D1B22A1990B2FFF708
:103BE000C9FF601CC4B2BC42F3DBBDE8F0812DE923
:103BF000F04107460C460026002509E03602391937
:103C0000491B491E88B2FFF789FF0644681CC5B2EC
:103C1000A542F3DB3046BDE8F08110B5FF20FFF789
:103C20007DFF0446552C01D1002010BD5521FF20F9
:103C3000FFF7A0FFFF20FFF771FF0446552C01D1CD
:103C40000020F2E70120F0E770B506460C46154665
:103C500008E03046721C96B2FFF760FF04F8010BD3
:103C6000681E85B2002DF4D170BD70B505460C46B6
:103C7000164606E021782846FFF77CFF681C85B2CF
:103C8000641C301EA6F101018EB2F3D170BD2DE986
:103C9000F04104464FF6FF7000EA042606F58070F6
:103CA00087B2354607E028466A1C95B20021FFF727
:103CB00061FF681C85B2BD42F5DBBDE8F081000004
:103CC00008B501211520FDF739F901219F48FCF7BE
:103CD0004AFF4FF48060ADF8000010208DF803001B
:103CE00003208DF8020069469948FCF76BFE4FF4FB
:103CF00080619748FCF713FF4FF40040ADF80000D7
:103D000069469448FCF75EFE4FF400419148FCF789
:103D100006FF08BD10B58F48001D006820F07040F8
:103D20008C49091D08600846006840F04050086052
:103D30000120894908608949C1F8A8010420FEF7DB
:103D40001AFB0020844908600420FEF714FB0020C1
:103D50008249C1F8A80110BD10B57E48001D006859
:103D600020F070407B49091D08600846006840F05B
:103D70004050086000207A4908607A49C1F8BC01C7
:103D80000420FEF7F8FA0120754908607549C1F86A
:103D9000BC010420FEF7EFFA10BD10B500246D48F9
:103DA000001D006820F070406A49091D086008463F
:103DB000006840F000400860012067490860FEF795
:103DC000DAFA01206549C1F8A801FEF7D4FA07E044
:103DD000601CC4B2FA2C03DDFFF7BEFF012010BD4A
:103DE0005D48803800680028F2D15D49086000BF56
:103DF000F5E710B500205A4908605648001D0068D4
:103E000020F070405349091D08600846006840F0E2
:103E10004050086000205349C1F8BC010220FEF761
:103E2000AAFA01204E4908600220FEF7A4FA0020F9
:103E30004A49C1F8A80110BD10B5002048490860E2
:103E40004448001D006820F070404249091D086088
:103E50000846006840F04050086001204149C1F820
:103E6000BC010220FEF787FA01203D4908600220CC
:103E7000FEF781FA00203949C1F8A80110BD70B5DC
:103E800004463448001D006820F070403149091D87
:103E900008600846006840F0405008600020304943
:103EA000086000251CE0E00918B101202A490860DB
:103EB00002E00020284908606006040E0220FEF798
:103EC0005AFA0120264908600220FEF754FA002021
:103ED0002249C1F8A8010220FEF74DFA681CC5B2BC
:103EE000082DE0DB70BD70B5054600241948001DA3
:103EF000006820F070401749091D086008460068F6
:103F000040F000400860002616E0002014490860D8
:103F10000220FEF730FA01201049C1F8A80160061E
:103F2000040E0D488038006808B1601CC4B201203E
:103F3000FEF721FA701CC6B2082EE6DB15B9FFF7B2
:103F40007BFF01E0FFF755FF204670BD0002300007
:103F50000010014000080140BC0121420000224243
:103F6000A80122420000214208B501211820FCF7D7
:103F7000E5FF4FF44040ADF8000003208DF802004B
:103F800010208DF8030069466A48FCF71BFD4020AD
:103F9000ADF8000003208DF8020010208DF803001A
:103FA00069466548FCF70EFD8020ADF800006946C3
:103FB0006148FCF707FD04208DF80300C002ADF84E
:103FC000000069465B48FCF7FDFC4FF48050ADF8FB
:103FD000000069465748FCF7F5FC4FF4004155488E
:103FE000FCF79DFD4FF480415248FCF79AFD4021BB
:103FF0005148FCF796FD80214F48FCF792FD08BD23
:1040000070B5002500204D49086001204C49C1F8D9
:10401000BC014A490860FEF7AEF900204949C1F8E1
:104020009C014948006808B145F400450E2411E0A0
:10403000002045498C3108604148D0F8300118B162
:104040000120A04080B2054301203F498C31086027
:10405000601E44B2002CEBDA284670BD70B50546F0
:104060000E46002038498C3108603649C1F8980165
:104070000520FEF7C8F907241BE00120A0402840D6
:1040800020B1012030498831086003E000202E492A
:104090008831086001202C498C310860FEF7B3F9A3
:1040A00000202749C1F8BC010120FEF7ACF9601ED1
:1040B00044B2002CE1DA0F241BE00120A040304084
:1040C00020B1012020498831086003E000201E490A
:1040D0008831086001201C498C310860FEF793F993
:1040E00000201749C1F8BC010120FEF78CF9601EC1
:1040F00044B2002CE1DA01201049091F08600520B4
:10410000FEF781F900200F49C1F8980170BD10B584
:10411000044621460120FFF7A1FF10BD10B5012183
:104120005620FFF79BFF41F202015520FFF796FF53
:1041300010BD0000000C0140001001409C01224213
:1041400000802142000022423081214208B5012135
:104150001020FCF7F3FE4FF4E070ADF800000320F0
:104160008DF8020010208DF8030069460148FCF725
:1041700029FC08BD00100140F0B480EA0102D40F10
:104180004200B2EB410F02D20246084611464A00F5
:1041900042D0C30DDDB2C1F3C752AD1A202D35DABE
:1041A000C1F3160141F4000204B15242C5F12006E8
:1041B00002FA06F12A411044B3EBD05F23D0C4B118
:1041C000012DA0EBC35009DCF0BC4FF0004202EA25
:1041D000C352DBB200F5000000F077BB400000F1F5
:1041E000807000EBC350A0F1807040EAD1704900AC
:1041F00009E0490841EAC071A0EBC35000F5000096
:10420000400800EBC350F0BC00F056BB61420122F5
:1042100002EB4101001BF6E7F0BC704781F0004162
:10422000AAE780F00040A7E780EA010210B502F09B
:104230000043400022D04A001FD0010E01EB126162
:10424000C0F35600C2F3560240F4000042F40002EC
:10425000A0FB022000047F39140400D0401C50EA67
:10426000124001D44000491EC2B20C0604EBD0102B
:10427000401C4008802A02D003E0002010BD20F03E
:104280000100002900DA0020184310BD30B480EA94
:10429000010202F0004530F0004221F0004013D04E
:1042A00090B1C30DD40DC2F31601C0F31600E41A89
:1042B00041F4000140F400027D34914201D3641CBA
:1042C00000E04900002C02DA30BC002070474FF4B7
:1042D00000000023914201D3891A034340084FEAAA
:1042E0004101F7D151B1914202D14FF0004105E0B7
:1042F00002D24FF0010101E06FF0010103EBC45065
:10430000284430BC00F0D8BA2DE9FE4F804681EA3F
:104310000300C00F0C46009021F0004123F000453F
:10432000B8EB0200A94105D24046214690461C4602
:104330000B46024623F00040104347D0270DC7F339
:104340000A00C3F30A510290401A019040286BDA28
:10435000C3F3130040F4801B0098924620B1002361
:10436000D2EB030A63EB0B0B01985946C0F14002F4
:10437000504600F070FA06460D4650465946019ADE
:1043800000F088FA10EB08006141002487EA11521E
:1043900084EAE7731A4340D0009A62B3019A012A73
:1043A0004FEA075215DC001B61EB02014FF000429F
:1043B00002EA0752CDE90042001C41F58011324665
:1043C0002B4600F0BFFA03B0BDE8F08F404621460F
:1043D000F9E7001B61EB0201001C41F58013001896
:1043E0005B412018A2F5001747EB030140EAD570A6
:1043F000B6196D4111E06D084FEA360645EAC07501
:104400004FEA0752001B61EB0201001C41F58011CD
:1044100049084FEA30000019514132462B4603B09B
:10442000BDE8F04F00F07FBA009801224000002361
:10443000D0EB020263EBE073009821464FEAE07490
:10444000B8EB000061EB0401E9E783F000435BE7B0
:1044500081F0004158E72DE9FE4F81EA030404F0A2
:10446000004421F0004100944FF0000B23F0004382
:1044700050EA01045ED052EA03045BD0C3F30A544D
:10448000C1F30A552C44A4F2F3340194A0FB025466
:10449000C1F3130141F48011C3F3130343F48013F8
:1044A00001FB024400FB034E840A970A44EA81544C
:1044B00047EA8357A4FB076802958D0A05FB078529
:1044C0004FEA932C04FB0C542705029D4FEA065833
:1044D00047EA1637B5EB08056EEB070C870E920E10
:1044E00047EA811742EA8312A7FB0201B6EB0B01F0
:1044F00064EB00042B0D43EA0C335E1844EB1C50B4
:10450000DA465146E7FB0201C5F313044FEA0B33C9
:1045100043EA14534FEA0432019C43EA0603A4F130
:104520000C040294009CCDE900B400F00BFA03B037
:10453000BDE8F08F00200146F9E72DE9F04D81EA52
:10454000030404F0004B21F0004514464FF0000A2C
:1045500023F0004150EA050220D054EA01021DD0A8
:10456000C5F30A570246C5F31303C1F31300C1F3A1
:104570000A5640F4801543F48013A7EB0608101B7D
:10458000D64608F2FD3873EB050002D308F10108A6
:1045900001E092185B41B8F1000F03DA00200146F8
:1045A000BDE8F08D00204FF48011064684460EE0F1
:1045B000171B73EB050705D3121B63EB05030643BB
:1045C0004CEA010C49084FEA300092185B4150EA6E
:1045D0000107EDD152EA030012D082EA040083EA17
:1045E0000501084305D0101BAB4106D20122002370
:1045F00006E000224FF0004302E06FF0010253108A
:104600001AEB06004CEB085110EB0A0041EB0B01D2
:10461000BDE8F04D00F087B9C10F80EAE0700844B2
:10462000CA079623002100F050B9962300221146B4
:1046300000F04BB90EB5C10F80EAE0700844CA071C
:10464000002140F233438DE80E000A460B4600F08D
:1046500079F903B000BD00F0004220F00040C10D28
:10466000C0F3160040F400007F2901DA00207047F3
:10467000962903DCC1F19601C84001E096398840D3
:10468000002AF4D04042704720F00040C10DC0F332
:10469000160040F400007F2901DA002070479629B7
:1046A00003DCC1F19601C8407047963988407047D5
:1046B000C1F30A5210B5C1F3130140F2FF3341F4C4
:1046C00080119A4201DA002010BD40F233439A4231
:1046D000A2F2334203DC524200F0CCF810BD90400D
:1046E00010BD00F0004230F000400AD0C10D01F5CD
:1046F0006071C0F3160042EA0151C208400711433D
:10470000704700200146704730B5041E71F1000467
:1047100004DB4FF00044404264EB0101141E73F1CE
:10472000000405DB1C464FF00043524263EB0403D8
:104730008B4208BF824230BD30B5041E71F10004C7
:1047400004DB4FF00044404264EB0101141E73F19E
:10475000000405DB1C464FF00043524263EB0403A8
:10476000994208BF904230BD01F0004330B421F0BF
:10477000004150EA010206D00A0DA2F56072C1F3B1
:104780001301002A02DC30BC00207047440F44EAC9
:10479000C104C100E01830BC00EBC25000F08CB87E
:1047A000002801DBC0F10040002901DBC1F100411C
:1047B00081427047002801DBC0F10040002901DB85
:1047C000C1F100418842704730B50B4601460020D8
:1047D0002022012409E021FA02F59D4205D303FAC3
:1047E00002F5491B04FA02F52844151EA2F1010244
:1047F000F1DC30BD2DE9F05F0546002092469B4676
:1048000088460646814640241BE0284641464746E6
:10481000224600F02FF853465A46C01A914110D351
:1048200011461846224600F016F82D1A67EB0108CB
:104830004F4622460120002100F00DF817EB000939
:104840004E41201EA4F10104DFDC484631462A46D1
:104850004346BDE8F09F202A04DB203A00FA02F12B
:10486000002070479140C2F1200320FA03F319435E
:1048700090407047202A04DB203A21FA02F0002100
:10488000704721FA02F3D040C2F120029140084360
:1048900019467047202A06DBCB17203A41FA02F06E
:1048A00043EAE07306E041FA02F3D040C2F120028D
:1048B00091400843194670470029A8BF7047401C23
:1048C000490008BF20F00100704710B4B0FA80FC26
:1048D00000FA0CF050EA010404BF10BC704749B163
:1048E000CCF1200421FA04F411FA0CF118BF0121D3
:1048F00021430843A3EB0C01CB1D4FEA00614FEAB3
:10490000102042BF002010BC704700EBC350104481
:104910000029A4BF10BC7047401C490008BF20F00C
:10492000010010BC704710B5141E73F1000408DAC2
:10493000401C41F1000192185B411A4301D120F063
:10494000010010BD2DE9F04D92469B4611B1B1FA20
:1049500081F202E0B0FA80F220329046FFF77BFF4E
:1049600004460F4640EA0A0041EA0B0153465A4604
:10497000084313D0114653EA010019D0C8F1400290
:104980005046FFF777FF05460E46504659464246C9
:10499000FFF761FF084305D0012004E020463946B7
:1049A000BDE8F08D0020054346EAE0762C4337430E
:1049B0000A986305E40AA0EB08000022FD0A44EA15
:1049C00047540A3002D500200146E9E701051019D5
:1049D0006941DDE9084500196941BDE8F04DA2E7EC
:1049E000C1F30A52C1F3130140F2FF3341F48011C5
:1049F0009A4202DA00200146704740F233439A425D
:104A0000A2F2334202DC5242FFF734BFFFF723BF6A
:104A1000064C074D06E0E06840F0010394E807000B
:104A200098471034AC42F6D3FBF764FB48590008B2
:104A30006859000870B58C1810F8015B15F0070371
:104A400001D110F8013B2A1106D110F8012B03E027
:104A500010F8016B01F8016B5B1EF9D12B0705D42F
:104A60000023521E0DD401F8013BFAE710F8013B78
:104A7000CB1A921C03E013F8015B01F8015B521E94
:104A8000F9D5A142D8D3002070BD00000FB4054B6A
:104A900010B503A9044A029800F0DAF810BC5DF8DA
:104AA00014FB000035240008A401002002E008C81F
:104AB000121F08C1002AFAD170477047002001E098
:104AC00001C1121F002AFBD1704700002DE9FF5FD2
:104AD00082B00021DDE90430020DDDF840B003436F
:104AE00018D044F61050A2F2FF3242431514119828
:104AF00001281FD0A5EB0B00401C5FEA000A4FF015
:104B000000064E4FDFF83891B046504615D5CAF131
:104B1000000413E0119801244AA3012801D16FEA8F
:104B20000B010298119AC0E90031C0E9024206B0B7
:104B3000BDE8F09FCBF10000DFE704460021404ACA
:104B4000491842EB0450CDE9001012E0E00707D00D
:104B500032463B4640464946FFF77DFC8046894643
:104B600032463B4610461946FFF775FC06460F468F
:104B70006410002CEAD1DDE90401DDE90023BAF17B
:104B8000000F06DAFFF767FC42464B46FFF763FC6F
:104B900005E0FFF7D2FC42464B46FFF7CEFC044649
:104BA0000E460022284BFFF7C7FD03D84FF0FF3019
:104BB000014607E00022254B20463146FFF7A4FBC3
:104BC000FFF70EFF102409E0002C0ADB0A22002365
:104BD000FFF710FE039B30321A55641E50EA0102A3
:104BE000F2D1641C039AC4F111031444119A012AEE
:104BF00003D0012208430DD10AE0084304D000206D
:104C00004FF0110B119072E7A3EB0B056D1E0DE039
:104C10005B4504DD4FF0000205F1010504E003DA15
:104C20004FF00002A5F10105002AECD0029811997D
:104C3000C0E90231C0E9004579E7000000001440F6
:104C40000000F03F300000000000F0430000E03FB3
:104C50002DE9FF4F95B09A46884606460025EEE1BD
:104C6000252877D100242746F94A0121039400E042
:104C7000044316F8013F203B01FA03F01042F7D13C
:104C800030782A2811D06FF02F033078A0F130024D
:104C9000092A16D8039A44F0020402EB820203EBBD
:104CA00042021044761C0390EFE758F8042B03925D
:104CB000002A03DA504244F40054039044F0020402
:104CC000761C30782E2816D116F8010F44F0040413
:104CD0002A280DD06FF02F023078A0F13003092B75
:104CE00009D807EB870302EB4303C718761CF3E7E9
:104CF00058F8047B761C30786C280FD006DC4C28E2
:104D000017D068280DD06A2814D104E0742810D078
:104D10007A280FD10DE044F400140AE044F4801422
:104D200001E044F440147278824202D104F5801408
:104D3000761C761C307866280BD013DC582877D088
:104D400009DC002875D04528F6D04628F4D047283D
:104D50001AD193E118E0632835D0642879D065280A
:104D600012D18BE1702873D008DC6728F1D0692854
:104D70006FD06E280DD06F2806D1ACE073282CD0F0
:104D8000752874D0782853D05246179990476D1CD7
:104D900054E1C4F30250022809D003280DD0D8F8FA
:104DA000001004280DD00D6008F1040846E1D8F881
:104DB0000010EA17C1E90052F6E7D8F800100D809C
:104DC000F2E70D70F0E718F8041B8DF800100020D2
:104DD0008DF80100EB46012003E058F804BB4FF0CA
:104DE000FF3061074FF0000102D40DE009F101012D
:104DF0008946B9420FDA8145F8DB1BF80910002912
:104E0000F4D108E009F1010189468142FADB1BF87F
:104E100009100029F6D103985346A0EB0907214653
:104E20003846179A00F080FA284400EB090507E09D
:104E300044E008E10DE01BF8010B5246179990473A
:104E4000B9F10109F7D2534621463846179AF2E0E4
:104E500039E00A21C4F302524FF0000B0091022AFC
:104E600006D058F8040BC117032A09D00AE023E042
:104E700008F1070020F00702F2E80201904605E081
:104E800000B2C117042A01D140B2C117002906DAC5
:104E90000A460021404261EB02012D2202E0220578
:104EA00004D52B228DF80420012203E0E20701D073
:104EB0002022F7E7914657E00A2100E010214FF049
:104EC000000B00910BE010214FF0000B44F00404A4
:104ED0000827009103E008204FF0000B0090C4F376
:104EE0000252022A05D058F8040B0021032A08D0E8
:104EF00008E008F1070020F00702F2E802019046FE
:104F000003E080B2042A00D1C0B24FF000092207AA
:104F10002AD53278702A07D0DDF800C08CF0100C4A
:104F20005CEA0B0C05D00EE040228DF80420012233
:104F300008E050EA010306D030238DF804308DF8E4
:104F4000052002229146009B83F0080353EA0B03DD
:104F50000AD150EA010201D1620705D530228DF84D
:104F600004204FF001097F1E3278582A04D039A25C
:104F70000C920CAA02920BE03BA2F9E75B46009A66
:104F8000FFF738FC0C9B9B5C029A521E0292137036
:104F900050EA0102F2D1029804A9081A00F1200B8C
:104FA000600702D524F4803400E001275F4502DD6C
:104FB000A7EB0B0000E0002000EB0B010090039832
:104FC0004944401A0390E00306D453462146179AF9
:104FD000039800F0A9F90544002706E001A852460D
:104FE000C05D179990476D1C7F1C4F45F6DBE003B1
:104FF0000CD553462146179A039800F095F90544BD
:1050000004E030205246179990476D1C0099481EC5
:1050100000900029F5DC08E00298029952460078D9
:10502000491C0291179990476D1CBBF10001ABF12F
:10503000010BF1DC5BE100F065F90544761C30788A
:1050400000287FF40DAE19B02846BDE8F08F0000AF
:10505000092801003031323334353637383961624E
:105060006364656600000000303132333435363712
:10507000383941424344454600000000600700D4EF
:10508000062708F1070020F00700F0E80223804619
:1050900003F0004C5FEA0C0001D097A009E0200566
:1050A00001D596A005E0E00701D095A001E0AFF2A0
:1050B0004C001390307823F0004365280CD006DCB8
:1050C000452809D046281DD047287FD13BE06628D7
:1050D00018D067287AD136E00021112F01DB11208A
:1050E00000E0781CCDE9000104A90CA8FFF7EEFC54
:1050F000DDE90D010C9A4FF0000B07F10109109248
:1051000000914EE04FF000400097CDE9011004A956
:105110000CA8FFF7DBFCDDE90D020C9B0F994FF0AB
:10512000000B91461093009211B9791C00EB010914
:10513000B7EB090003D4C0F1FF3B07F10109A9EB6C
:105140000700019042E0012F00DA01270021112F12
:1051500001DD112000E03846CDE9000104A90CA8CA
:10516000FFF7B4FCDDE90D010C9A00914FF0000B44
:10517000B946109221070FD4009A4A4503DA9146A6
:1051800001E0A9F10109B9F1010F05DD109AA9F1BA
:105190000101515C3029F4D0B84202DA10F1040F59
:1051A00003DA0121CDE9011010E0002803DC83447B
:1051B000A9EB000102E0411C494500DD8946A0EB56
:1051C0000B00401C01904FF000400290200705D4D6
:1051D0000198484502DB4FF0FF30019000208DF828
:1051E0004B0002980DF14B07B0F1004F25D0022083
:1051F0000C902B200D90029800280CDA404202906F
:105200002D200D9007E00A210298FFF7DDFA3031DA
:10521000029007F8011D0C99481E0C900029F2DC41
:1052200002980028EFD1791E0D980870307800F0B0
:10523000200040F0450007F8020D11A8C01BC01D5A
:1052400002901398007800B1012000EB0901019849
:1052500001EBE071029801440398401A401E03904C
:10526000E00306D453462146179A039800F05CF8F1
:1052700005441398007818B15246179990476D1C51
:10528000E00323D553462146179A039800F04CF8C3
:1052900005441BE0BBF1000F07DB0098584504DD17
:1052A0001098179910F80B0001E01799302052461A
:1052B000904701980BF1010B401E05F1010501908B
:1052C00004D12E205246179990476D1CB9F1000168
:1052D000A9F10109DEDC05E017F8010B5246179928
:1052E00090476D1C0299481E02900029F4DC534639
:1052F0002146179A03989EE62D0000002B0000001F
:10530000200000002DE9F041044600251E46174606
:10531000880404D405E039462020B0476D1C641E83
:10532000F9D52846BDE8F0812DE9F0410446002575
:105330001E469046C80301D5302700E02027880488
:1053400004D505E041463846B0476D1C641EF9D5CA
:105350002846BDE8F08100000000000000000000C9
:105360000000000000000000000808080808080805
:1053700000001818000000486C2412000000000013
:105380000000000000000000002424247F121212FC
:105390007F12121200000000081C2A2A0A0C18288A
:1053A000282A2A1C080800000022251515152A584D
:1053B0005454542200000000000C1212120A7625E8
:1053C0002911916E00000006060403000000000091
:1053D0000000000000000040201010080808080825
:1053E00008101020400000020408081010101010CF
:1053F0001008080402000000000008086B1C1C6B69
:1054000008080000000000000000080808087F08E5
:105410000808080000000000000000000000000074
:105420000000060604030000000000000000FE006B
:10543000000000000000000000000000000000006C
:1054400000000606000000008040402020101008E8
:1054500008040402020000000018244242424242B2
:10546000424224180000000000080E08080808083E
:105470000808083E00000000003C42424220201084
:105480000804427E00000000003C424220182040F8
:105490004042221C00000000002030282424222248
:1054A0007E20207800000000007E0202021A2640C2
:1054B0004042221C0000000000382402021A26424A
:1054C0004242241800000000007E2222101008082A
:1054D0000808080800000000003C4242422418244A
:1054E0004242423C000000000018244242426458FC
:1054F0004040241C000000000000000018180000BC
:105500000000181800000000000000000008000063
:1055100000000008080400000040201008040204F5
:105520000810204000000000000000007F00000084
:105530007F0000000000000000020408102040204E
:105540001008040200000000003C424246402010C7
:105550001000181800000000001C225A555555551F
:105560002D42221C00000000000808181414243CDE
:10557000224242E700000000001F2222221E224297
:105580004242221F00000000007C42420101010152
:105590000142221C00000000001F224242424242FF
:1055A0004242221F00000000003F4212121E12124F
:1055B0000242423F00000000003F4212121E12123F
:1055C0000202020700000000003C222201010171DA
:1055D0002122221C0000000000E7424242427E429B
:1055E000424242E700000000003E080808080808A0
:1055F0000808083E00000000007C10101010101079
:1056000010101010110F0000007722120A0E0A125B
:1056100012222277000000000007020202020202AA
:105620000202427F000000000077363636362A2A12
:105630002A2A2A6B0000000000E346464A4A5252DA
:105640005262624700000000001C2241414141417A
:105650004141221C00000000003F424242423E0203
:105660000202020700000000001C224141414141AA
:105670004D53321C60000000003F4242423E121275
:10568000222242C700000000007C4242020418208F
:105690004042423E00000000007F49080808080818
:1056A0000808081C0000000000E742424242424253
:1056B0004242423C0000000000E7424222242414FF
:1056C0001418080800000000006B49494949555565
:1056D000362222220000000000E742242418181875
:1056E000242442E700000000007722221414080856
:1056F0000808081C00000000007E2120101008048B
:105700000442423F0000007808080808080808081A
:1057100008080808780000000202040408080810BD
:10572000102020204040001E1010101010101010EB
:10573000101010101E00003844000000000000008F
:105740000000000000000000000000000000000059
:105750000000000000FF000608000000000000003C
:10576000000000000000000000000000003C427843
:10577000444242FC0000000000030202021A2642DA
:105780004242261A000000000000000000384402D7
:10579000020244380000000000604040407844426B
:1057A000424264D80000000000000000003C427E3D
:1057B0000202423C0000000000F08808087E080851
:1057C0000808083E0000000000000000007C2222C3
:1057D0001C023C42423C000000030202023A4642E4
:1057E000424242E700000000000C0C00000E0808D6
:1057F0000808083E0000000000303000003820207B
:1058000020202020221E0000000302020272120A41
:105810001612227700000000000E08080808080889
:105820000808083E0000000000000000007F92927F
:10583000929292B70000000000000000003B464238
:10584000424242E70000000000000000003C4242EB
:105850004242423C0000000000000000001B2642C3
:105860004242221E0207000000000000007844426D
:105870004242447840E000000000000000774C0401
:105880000404041F0000000000000000007C42022D
:105890003C40423E0000000000000008083E0808AE
:1058A00008080830000000000000000000634242C9
:1058B000424262DC000000000000000000E74224D9
:1058C00024140808000000000000000000EB494913
:1058D0005555222200000000000000000076241828
:1058E0001818246E000000000000000000E74224A9
:1058F000241418080807000000000000007E221091
:105900000808447E000000C0202020202010202015
:1059100020202020C00010101010101010101010A7
:1059200010101010101000060808080808100808C9
:105930000808080806000C32C20000000000000041
:10594000000000000000000068590008000000206E
:10595000D0010000344A0008E4590008D0010020BA
:1059600068090000BC4A0008201148E19A3FF62867
:105970009C3FA4709D3F52B89E3F081712A03FAEB7
:1059800047A13F5C8FA23F0AD7A33FB81EA53F9A0D
:1059900099993F280C376666A6040C373333B30455
:1059A000210A37C0040C37CDCCCC04124812451262
:1059B0004112447A3002611C9A99192003124C3D1D
:1059C00029701A8C78415A80087184A24A046809A7
:1059D00001020304060708090C69100530020406D9
:0459E00008000000BB
:04000005080000ED02
:00000001FF
